{
  "contractName": "AddElection",
  "abi": [
    {
      "constant": true,
      "inputs": [],
      "name": "candidate1",
      "outputs": [
        {
          "internalType": "uint256",
          "name": "",
          "type": "uint256"
        }
      ],
      "payable": false,
      "stateMutability": "view",
      "type": "function"
    },
    {
      "constant": true,
      "inputs": [],
      "name": "candidate2",
      "outputs": [
        {
          "internalType": "uint256",
          "name": "",
          "type": "uint256"
        }
      ],
      "payable": false,
      "stateMutability": "view",
      "type": "function"
    },
    {
      "constant": true,
      "inputs": [
        {
          "internalType": "address",
          "name": "",
          "type": "address"
        }
      ],
      "name": "voted",
      "outputs": [
        {
          "internalType": "bool",
          "name": "",
          "type": "bool"
        }
      ],
      "payable": false,
      "stateMutability": "view",
      "type": "function"
    },
    {
      "constant": false,
      "inputs": [
        {
          "internalType": "uint256",
          "name": "candidate",
          "type": "uint256"
        }
      ],
      "name": "castVote",
      "outputs": [],
      "payable": false,
      "stateMutability": "nonpayable",
      "type": "function"
    }
  ],
  "bytecode": "0x608060405234801561001057600080fd5b50610389806100206000396000f3fe608060405234801561001057600080fd5b506004361061004c5760003560e01c806301243fce146100515780633eb76b9c1461006f5780635b57014c1461008b578063aec2ccae146100a9575b600080fd5b6100596100d9565b60405161006691906102b5565b60405180910390f35b61008960048036036100849190810190610253565b6100df565b005b6100936101da565b6040516100a091906102b5565b60405180910390f35b6100c360048036036100be919081019061022a565b6101e0565b6040516100d0919061029a565b60405180910390f35b60005481565b600260003373ffffffffffffffffffffffffffffffffffffffff1673ffffffffffffffffffffffffffffffffffffffff16815260200190815260200160002060009054906101000a900460ff16158015610144575060018114806101435750600281145b5b61014d57600080fd5b600181141561016c57600080815480929190600101919050555061017f565b6001600081548092919060010191905055505b6001600260003373ffffffffffffffffffffffffffffffffffffffff1673ffffffffffffffffffffffffffffffffffffffff16815260200190815260200160002060006101000a81548160ff02191690831515021790555050565b60015481565b60026020528060005260406000206000915054906101000a900460ff1681565b60008135905061020f81610318565b92915050565b6000813590506102248161032f565b92915050565b60006020828403121561023c57600080fd5b600061024a84828501610200565b91505092915050565b60006020828403121561026557600080fd5b600061027384828501610215565b91505092915050565b610285816102e2565b82525050565b6102948161030e565b82525050565b60006020820190506102af600083018461027c565b92915050565b60006020820190506102ca600083018461028b565b92915050565b60006102db826102ee565b9050919050565b60008115159050919050565b600073ffffffffffffffffffffffffffffffffffffffff82169050919050565b6000819050919050565b610321816102d0565b811461032c57600080fd5b50565b6103388161030e565b811461034357600080fd5b5056fea365627a7a72315820faa18d88485ceec447238cc24c1d3733f24cd9721fae185859cc422c95c1ae536c6578706572696d656e74616cf564736f6c63430005100040",
  "source": "// SPDX-License-Identifier: MIT\r\npragma solidity >=0.4.22 <0.9.0;\r\npragma experimental ABIEncoderV2;\r\ncontract VotingSystem {\r\n    \r\n    struct election {\r\n        //uint electionId;\r\n        string Title;\r\n        uint DateFrom;\r\n        uint DateTo;\r\n        string[] Candidates;\r\n    }\r\n\r\n    struct candidate {\r\n        uint CandidateId;\r\n        string Name;\r\n    }\r\n\r\n    struct key {\r\n        uint keyValue;\r\n        uint electionId;\r\n    }\r\n\r\n    mapping (address => string) PESEL;\r\n\r\n    election[] public elections;\r\n\r\n    function getElections() public view returns(election[] memory electionList) {\r\n        electionList = elections;\r\n    }\r\n\r\n    function addElection(string memory title, uint dateFrom, uint dateTo, string[] memory candidateList) public returns(string memory) {\r\n        //candidate[] memory candidateObjects = new candidate[](candidateList.length);\r\n        \r\n        //for(uint i=0; i < candidateList.length; i++){\r\n            //candidate memory myStruct = candidate(i, candidateList[i]);\r\n            //candidateObjects[i] = candidate(i, candidateList[i]);\r\n        //}\r\n\r\n        elections.push(election(title, dateFrom, dateTo, candidateList));\r\n        \r\n        return \"Success\";\r\n    }\r\n\r\n    function getNumElections() public view returns(uint) {\r\n        return elections.length;\r\n    }\r\n\r\n\r\n    // function addElection(string memory title, uint dateFrom, uint dateTo, string[] calldata candidateList) external  {\r\n    //     candidate[] memory candidateObjects = new candidate[](candidateList.length);\r\n        \r\n    //     for(uint i=0; i < candidateList.length; i++){\r\n    //         //candidateObjects[i] = candidate(i, candidateList[i]);\r\n    //     }\r\n\r\n    //     elections.push(election(title, dateFrom, dateTo, candidateObjects));\r\n    // }\r\n\r\n    //aa\r\n\r\n    // address electionAuthority;\r\n\r\n    // uint electionStartTime;\r\n    // uint electionEndTime;\r\n\r\n    // string[] candidates; // Registered candidates\r\n    // mapping (string => uint) votes; // Candidate ID to number of votes\r\n    // mapping (address => bool) voters; // Registered voters\r\n    // mapping (address => bool) hasVoted; // If a registered voter has voted or not\r\n    \r\n\r\n    // modifier only_election_authority() {\r\n    //     if (msg.sender != electionAuthority) revert();\r\n    //     _;\r\n    // }\r\n    \r\n    // modifier only_registered_voters() {\r\n    //     if (!voters[msg.sender]) revert();\r\n    //     _;\r\n    // }\r\n    \r\n    // modifier vote_only_once() {\r\n    //     if (hasVoted[msg.sender]) revert();\r\n    //     _;\r\n    // }\r\n    \r\n    // modifier only_during_election_time() {\r\n    //     if (electionEndTime == 0 || electionEndTime > block.timestamp || electionStartTime < block.timestamp) revert();\r\n    //     _;\r\n    // }\r\n    \r\n    // function start_election(uint duration) public\r\n    //     only_election_authority\r\n    // {\r\n    //     electionEndTime = block.timestamp + duration;\r\n    // }\r\n  \r\n    // function register_candidate(string memory id) public\r\n    //     only_election_authority\r\n    // {\r\n    //     candidates.push(id);\r\n    // }\r\n    \r\n    // function register_voter(address addr) public\r\n    //     only_election_authority\r\n    // {\r\n    //     voters[addr] = true;\r\n    // }\r\n    \r\n    // function vote(string memory id) public\r\n    //     only_registered_voters\r\n    //     vote_only_once\r\n    //     only_during_election_time\r\n    // {\r\n    //     votes[id] += 1;\r\n    //     hasVoted[msg.sender] = true;\r\n    // }\r\n    \r\n    // function get_num_candidates() public view returns(uint) {\r\n    //     return candidates.length;\r\n    // }\r\n    \r\n    // function get_candidate(uint i) public\r\n    //     view returns(string memory _candidate, uint _votes)\r\n    // {\r\n    //     _candidate = candidates[i];\r\n    //     _votes = votes[_candidate];\r\n    // }\r\n}\r\n\r\ncontract AddElection {\r\n    uint public candidate1;       \r\n    uint public candidate2;     \r\n\r\n    mapping (address => bool) public voted; \r\n\r\n    function castVote(uint candidate) public  {            \r\n        require(!voted[msg.sender] && (candidate == 1 || candidate == 2));         \r\n        if(candidate == 1)\r\n        {             \r\n          candidate1++;         \r\n        }\r\n        else\r\n        {             \r\n         candidate2++;                    \r\n        }         \r\n        voted[msg.sender] = true;     \r\n    } \r\n}",
  "sourcePath": "D:/poli/Pracownia_Problemowa/voting-system/voting-system-api/voting-system-api/contracts/VotingSystem.sol",
  "compiler": {
    "name": "solc",
    "version": "0.5.16+commit.9c3226ce.Emscripten.clang"
  },
  "schemaVersion": "3.3.4",
  "updatedAt": "2021-04-26T12:50:29.085Z",
  "devdoc": {
    "methods": {}
  },
  "userdoc": {
    "methods": {}
  }
}