{
    "contractName": "AddElection",
    "abi": [
        {
            "inputs": [],
            "name": "candidate1",
            "outputs": [
                {
                    "internalType": "uint256",
                    "name": "",
                    "type": "uint256"
                }
            ],
            "stateMutability": "view",
            "type": "function"
        },
        {
            "inputs": [],
            "name": "candidate2",
            "outputs": [
                {
                    "internalType": "uint256",
                    "name": "",
                    "type": "uint256"
                }
            ],
            "stateMutability": "view",
            "type": "function"
        },
        {
            "inputs": [
                {
                    "internalType": "uint256",
                    "name": "candidate",
                    "type": "uint256"
                }
            ],
            "name": "castVote",
            "outputs": [],
            "stateMutability": "nonpayable",
            "type": "function"
        },
        {
            "inputs": [
                {
                    "internalType": "address",
                    "name": "",
                    "type": "address"
                }
            ],
            "name": "voted",
            "outputs": [
                {
                    "internalType": "bool",
                    "name": "",
                    "type": "bool"
                }
            ],
            "stateMutability": "view",
            "type": "function"
        }
    ],
    "bytecode": "608060405234801561001057600080fd5b506101e9806100206000396000f3fe608060405234801561001057600080fd5b506004361061004c5760003560e01c806301243fce146100515780633eb76b9c1461006d5780635b57014c14610082578063aec2ccae1461008b575b600080fd5b61005a60005481565b6040519081526020015b60405180910390f35b61008061007b366004610174565b6100be565b005b61005a60015481565b6100ae610099366004610146565b60026020526000908152604090205460ff1681565b6040519015158152602001610064565b3360009081526002602052604090205460ff161580156100e8575080600114806100e85750806002145b6100f157600080fd5b8060011415610113576000805490806101098361018c565b9190505550610129565b600180549060006101238361018c565b91905055505b50336000908152600260205260409020805460ff19166001179055565b600060208284031215610157578081fd5b81356001600160a01b038116811461016d578182fd5b9392505050565b600060208284031215610185578081fd5b5035919050565b60006000198214156101ac57634e487b7160e01b81526011600452602481fd5b506001019056fea2646970667358221220098cf2b1598be92d6d68f46aec6416f656986da9d035b0a905d64d9e717a7bcd64736f6c63430008040033",
    "sourcePath": "d:/poli/Pracownia_Problemowa/voting-system/voting-system-api/voting-system-api/Contracts/VotingSystem.sol",
    "compiler": {
        "name": "solc",
        "version": "0.8.4+commit.c7e474f2"
    },
    "functionHashes": {
        "candidate1()": "01243fce",
        "candidate2()": "5b57014c",
        "castVote(uint256)": "3eb76b9c",
        "voted(address)": "aec2ccae"
    },
    "gasEstimates": {
        "creation": {
            "codeDepositCost": "97800",
            "executionCost": "147",
            "totalCost": "97947"
        },
        "external": {
            "candidate1()": "962",
            "candidate2()": "1006",
            "castVote(uint256)": "42996",
            "voted(address)": "1240"
        }
    }
}