{
    "contractName": "Election",
    "abi": [
        {
            "inputs": [
                {
                    "internalType": "string",
                    "name": "title",
                    "type": "string"
                },
                {
                    "internalType": "uint256",
                    "name": "dateFrom",
                    "type": "uint256"
                },
                {
                    "internalType": "uint256",
                    "name": "dateTo",
                    "type": "uint256"
                },
                {
                    "internalType": "string[]",
                    "name": "candidateList",
                    "type": "string[]"
                }
            ],
            "stateMutability": "nonpayable",
            "type": "constructor"
        },
        {
            "inputs": [
                {
                    "internalType": "uint256",
                    "name": "",
                    "type": "uint256"
                }
            ],
            "name": "Candidates",
            "outputs": [
                {
                    "internalType": "string",
                    "name": "",
                    "type": "string"
                }
            ],
            "stateMutability": "view",
            "type": "function"
        },
        {
            "inputs": [],
            "name": "DateFrom",
            "outputs": [
                {
                    "internalType": "uint256",
                    "name": "",
                    "type": "uint256"
                }
            ],
            "stateMutability": "view",
            "type": "function"
        },
        {
            "inputs": [],
            "name": "DateTo",
            "outputs": [
                {
                    "internalType": "uint256",
                    "name": "",
                    "type": "uint256"
                }
            ],
            "stateMutability": "view",
            "type": "function"
        },
        {
            "inputs": [],
            "name": "Title",
            "outputs": [
                {
                    "internalType": "string",
                    "name": "",
                    "type": "string"
                }
            ],
            "stateMutability": "view",
            "type": "function"
        }
    ],
    "bytecode": "608060405234801561001057600080fd5b506040516105f93803806105f983398101604081905261002f9161023d565b835161004290600090602087019061006a565b506001839055600282905580516100609060039060208401906100ee565b50505050506103b3565b82805461007690610362565b90600052602060002090601f01602090048101928261009857600085556100de565b82601f106100b157805160ff19168380011785556100de565b828001600101855582156100de579182015b828111156100de5782518255916020019190600101906100c3565b506100ea929150610147565b5090565b82805482825590600052602060002090810192821561013b579160200282015b8281111561013b578251805161012b91849160209091019061006a565b509160200191906001019061010e565b506100ea92915061015c565b5b808211156100ea5760008155600101610148565b808211156100ea5760006101708282610179565b5060010161015c565b50805461018590610362565b6000825580601f10610195575050565b601f0160209004906000526020600020908101906101b39190610147565b50565b600082601f8301126101c6578081fd5b81516001600160401b038111156101df576101df61039d565b60206101f3601f8301601f19168201610332565b8281528582848701011115610206578384fd5b835b83811015610223578581018301518282018401528201610208565b8381111561023357848385840101525b5095945050505050565b60008060008060808587031215610252578384fd5b84516001600160401b0380821115610268578586fd5b610274888389016101b6565b95506020915081870151945060408701519350606087015181811115610298578384fd5b8701601f810189136102a8578384fd5b8051828111156102ba576102ba61039d565b8060051b6102c9858201610332565b8281528581019084870183860188018e10156102e3578889fd5b8893505b84841015610320578051878111156102fd57898afd5b61030b8f8a838a01016101b6565b845250600193909301929187019187016102e7565b50999c989b5096995050505050505050565b604051601f8201601f191681016001600160401b038111828210171561035a5761035a61039d565b604052919050565b600181811c9082168061037657607f821691505b6020821081141561039757634e487b7160e01b600052602260045260246000fd5b50919050565b634e487b7160e01b600052604160045260246000fd5b610237806103c26000396000f3fe608060405234801561001057600080fd5b506004361061004c5760003560e01c8063290e9212146100515780636e2a8c941461007a578063b87f040414610091578063bdf7287a14610099575b600080fd5b61006461005f36600461015b565b6100a2565b6040516100719190610173565b60405180910390f35b61008360015481565b604051908152602001610071565b61006461014e565b61008360025481565b600381815481106100b257600080fd5b9060005260206000200160009150905080546100cd906101c6565b80601f01602080910402602001604051908101604052809291908181526020018280546100f9906101c6565b80156101465780601f1061011b57610100808354040283529160200191610146565b820191906000526020600020905b81548152906001019060200180831161012957829003601f168201915b505050505081565b600080546100cd906101c6565b60006020828403121561016c578081fd5b5035919050565b6000602080835283518082850152825b8181101561019f57858101830151858201604001528201610183565b818111156101b05783604083870101525b50601f01601f1916929092016040019392505050565b600181811c908216806101da57607f821691505b602082108114156101fb57634e487b7160e01b600052602260045260246000fd5b5091905056fea2646970667358221220869c28c7b18f91179d7005f946bfc0122fdd9c666db7f53150e10cae14024cd764736f6c63430008040033",
    "sourcePath": "d:/poli/Pracownia_Problemowa/voting-system/voting-system-api/voting-system-api/Contracts/VotingSystem.sol",
    "compiler": {
        "name": "solc",
        "version": "0.8.4+commit.c7e474f2"
    },
    "functionHashes": {
        "Candidates(uint256)": "290e9212",
        "DateFrom()": "6e2a8c94",
        "DateTo()": "bdf7287a",
        "Title()": "b87f0404"
    },
    "gasEstimates": {
        "creation": {
            "codeDepositCost": "113400",
            "executionCost": "infinite",
            "totalCost": "infinite"
        },
        "external": {
            "Candidates(uint256)": "infinite",
            "DateFrom()": "995",
            "DateTo()": "1039",
            "Title()": "infinite"
        }
    }
}