{
  "contractName": "Election",
  "abi": [
    {
      "inputs": [
        {
          "internalType": "string",
          "name": "title",
          "type": "string"
        },
        {
          "internalType": "uint256",
          "name": "dateFrom",
          "type": "uint256"
        },
        {
          "internalType": "uint256",
          "name": "dateTo",
          "type": "uint256"
        },
        {
          "internalType": "string[]",
          "name": "candidateList",
          "type": "string[]"
        }
      ],
      "payable": false,
      "stateMutability": "nonpayable",
      "type": "constructor"
    },
    {
      "constant": true,
      "inputs": [
        {
          "internalType": "uint256",
          "name": "",
          "type": "uint256"
        }
      ],
      "name": "Candidates",
      "outputs": [
        {
          "internalType": "string",
          "name": "",
          "type": "string"
        }
      ],
      "payable": false,
      "stateMutability": "view",
      "type": "function"
    },
    {
      "constant": true,
      "inputs": [],
      "name": "DateFrom",
      "outputs": [
        {
          "internalType": "uint256",
          "name": "",
          "type": "uint256"
        }
      ],
      "payable": false,
      "stateMutability": "view",
      "type": "function"
    },
    {
      "constant": true,
      "inputs": [],
      "name": "DateTo",
      "outputs": [
        {
          "internalType": "uint256",
          "name": "",
          "type": "uint256"
        }
      ],
      "payable": false,
      "stateMutability": "view",
      "type": "function"
    },
    {
      "constant": true,
      "inputs": [],
      "name": "Title",
      "outputs": [
        {
          "internalType": "string",
          "name": "",
          "type": "string"
        }
      ],
      "payable": false,
      "stateMutability": "view",
      "type": "function"
    }
  ],
  "bytecode": "0x60806040523480156200001157600080fd5b5060405162000965380380620009658339818101604052620000379190810190620003e7565b83600090805190602001906200004f92919062000081565b50826001819055508160028190555080600390805190602001906200007692919062000108565b505050505062000590565b828054600181600116156101000203166002900490600052602060002090601f016020900481019282601f10620000c457805160ff1916838001178555620000f5565b82800160010185558215620000f5579182015b82811115620000f4578251825591602001919060010190620000d7565b5b5090506200010491906200016f565b5090565b8280548282559060005260206000209081019282156200015c579160200282015b828111156200015b5782518290805190602001906200014a92919062000197565b509160200191906001019062000129565b5b5090506200016b91906200021e565b5090565b6200019491905b808211156200019057600081600090555060010162000176565b5090565b90565b828054600181600116156101000203166002900490600052602060002090601f016020900481019282601f10620001da57805160ff19168380011785556200020b565b828001600101855582156200020b579182015b828111156200020a578251825591602001919060010190620001ed565b5b5090506200021a91906200016f565b5090565b6200024c91905b808211156200024857600081816200023e91906200024f565b5060010162000225565b5090565b90565b50805460018160011615610100020316600290046000825580601f1062000277575062000298565b601f0160209004906000526020600020908101906200029791906200016f565b5b50565b600082601f830112620002ad57600080fd5b8151620002c4620002be82620004b3565b62000485565b9150818183526020840193506020810190508360005b838110156200030e5781518601620002f3888262000318565b845260208401935060208301925050600181019050620002da565b5050505092915050565b600082601f8301126200032a57600080fd5b8151620003416200033b82620004dc565b62000485565b915080825260208301602083018583830111156200035e57600080fd5b6200036b83828462000540565b50505092915050565b600082601f8301126200038657600080fd5b81516200039d620003978262000509565b62000485565b91508082526020830160208301858383011115620003ba57600080fd5b620003c783828462000540565b50505092915050565b600081519050620003e18162000576565b92915050565b60008060008060808587031215620003fe57600080fd5b600085015167ffffffffffffffff8111156200041957600080fd5b620004278782880162000374565b94505060206200043a87828801620003d0565b93505060406200044d87828801620003d0565b925050606085015167ffffffffffffffff8111156200046b57600080fd5b62000479878288016200029b565b91505092959194509250565b6000604051905081810181811067ffffffffffffffff82111715620004a957600080fd5b8060405250919050565b600067ffffffffffffffff821115620004cb57600080fd5b602082029050602081019050919050565b600067ffffffffffffffff821115620004f457600080fd5b601f19601f8301169050602081019050919050565b600067ffffffffffffffff8211156200052157600080fd5b601f19601f8301169050602081019050919050565b6000819050919050565b60005b838110156200056057808201518184015260208101905062000543565b8381111562000570576000848401525b50505050565b620005818162000536565b81146200058d57600080fd5b50565b6103c580620005a06000396000f3fe608060405234801561001057600080fd5b506004361061004c5760003560e01c8063290e9212146100515780636e2a8c9414610081578063b87f04041461009f578063bdf7287a146100bd575b600080fd5b61006b60048036036100669190810190610253565b6100db565b60405161007891906102c4565b60405180910390f35b610089610194565b60405161009691906102e6565b60405180910390f35b6100a761019a565b6040516100b491906102c4565b60405180910390f35b6100c5610238565b6040516100d291906102e6565b60405180910390f35b600381815481106100e857fe5b906000526020600020016000915090508054600181600116156101000203166002900480601f01602080910402602001604051908101604052809291908181526020018280546001816001161561010002031660029004801561018c5780601f106101615761010080835404028352916020019161018c565b820191906000526020600020905b81548152906001019060200180831161016f57829003601f168201915b505050505081565b60015481565b60008054600181600116156101000203166002900480601f0160208091040260200160405190810160405280929190818152602001828054600181600116156101000203166002900480156102305780601f1061020557610100808354040283529160200191610230565b820191906000526020600020905b81548152906001019060200180831161021357829003601f168201915b505050505081565b60025481565b60008135905061024d8161036b565b92915050565b60006020828403121561026557600080fd5b60006102738482850161023e565b91505092915050565b600061028782610301565b610291818561030c565b93506102a1818560208601610327565b6102aa8161035a565b840191505092915050565b6102be8161031d565b82525050565b600060208201905081810360008301526102de818461027c565b905092915050565b60006020820190506102fb60008301846102b5565b92915050565b600081519050919050565b600082825260208201905092915050565b6000819050919050565b60005b8381101561034557808201518184015260208101905061032a565b83811115610354576000848401525b50505050565b6000601f19601f8301169050919050565b6103748161031d565b811461037f57600080fd5b5056fea365627a7a72315820f20e9f73f5766400c198ae1d047cead903458292f59974a0439795578707b0086c6578706572696d656e74616cf564736f6c63430005100040",
  "source": "// SPDX-License-Identifier: MIT\r\npragma solidity >=0.4.22 <0.9.0;\r\npragma experimental ABIEncoderV2;\r\n\r\ncontract VotingSystem {\r\n    \r\n    struct key {\r\n        uint keyValue;\r\n        uint electionId;\r\n    }\r\n\r\n    mapping (address => string) PESEL;\r\n\r\n    //mapping (address => Election) elections;\r\n    Election[] public elections;\r\n\r\n    function getElections() public view returns(Election[] memory electionList) {\r\n        electionList = elections;\r\n    }\r\n\r\n    function addElection(string memory title, uint dateFrom, uint dateTo, string[] memory candidateList) public returns(string memory) {\r\n        elections.push(new Election(title, dateFrom, dateTo, candidateList));\r\n        return \"Success\";\r\n    }\r\n\r\n    function getNumElections() public view returns(uint) {\r\n        return elections.length;\r\n    }\r\n\r\n\r\n    // function addElection(string memory title, uint dateFrom, uint dateTo, string[] calldata candidateList) external  {\r\n    //     candidate[] memory candidateObjects = new candidate[](candidateList.length);\r\n        \r\n    //     for(uint i=0; i < candidateList.length; i++){\r\n    //         //candidateObjects[i] = candidate(i, candidateList[i]);\r\n    //     }\r\n\r\n    //     elections.push(election(title, dateFrom, dateTo, candidateObjects));\r\n    // }\r\n\r\n    //aa\r\n\r\n    // address electionAuthority;\r\n\r\n    // uint electionStartTime;\r\n    // uint electionEndTime;\r\n\r\n    // string[] candidates; // Registered candidates\r\n    // mapping (string => uint) votes; // Candidate ID to number of votes\r\n    // mapping (address => bool) voters; // Registered voters\r\n    // mapping (address => bool) hasVoted; // If a registered voter has voted or not\r\n    \r\n\r\n    // modifier only_election_authority() {\r\n    //     if (msg.sender != electionAuthority) revert();\r\n    //     _;\r\n    // }\r\n    \r\n    // modifier only_registered_voters() {\r\n    //     if (!voters[msg.sender]) revert();\r\n    //     _;\r\n    // }\r\n    \r\n    // modifier vote_only_once() {\r\n    //     if (hasVoted[msg.sender]) revert();\r\n    //     _;\r\n    // }\r\n    \r\n    // modifier only_during_election_time() {\r\n    //     if (electionEndTime == 0 || electionEndTime > block.timestamp || electionStartTime < block.timestamp) revert();\r\n    //     _;\r\n    // }\r\n    \r\n    // function start_election(uint duration) public\r\n    //     only_election_authority\r\n    // {\r\n    //     electionEndTime = block.timestamp + duration;\r\n    // }\r\n  \r\n    // function register_candidate(string memory id) public\r\n    //     only_election_authority\r\n    // {\r\n    //     candidates.push(id);\r\n    // }\r\n    \r\n    // function register_voter(address addr) public\r\n    //     only_election_authority\r\n    // {\r\n    //     voters[addr] = true;\r\n    // }\r\n    \r\n    // function vote(string memory id) public\r\n    //     only_registered_voters\r\n    //     vote_only_once\r\n    //     only_during_election_time\r\n    // {\r\n    //     votes[id] += 1;\r\n    //     hasVoted[msg.sender] = true;\r\n    // }\r\n    \r\n    // function get_num_candidates() public view returns(uint) {\r\n    //     return candidates.length;\r\n    // }\r\n    \r\n    // function get_candidate(uint i) public\r\n    //     view returns(string memory _candidate, uint _votes)\r\n    // {\r\n    //     _candidate = candidates[i];\r\n    //     _votes = votes[_candidate];\r\n    // }\r\n}\r\n\r\ncontract Election {\r\n\r\n    constructor(string memory title, uint dateFrom, uint dateTo, string[] memory candidateList) public {\r\n        Title = title;\r\n        DateFrom = dateFrom;\r\n        DateTo = dateTo;\r\n        Candidates = candidateList;\r\n    }\r\n\r\n    string public Title;\r\n    uint public DateFrom;\r\n    uint public DateTo;\r\n    string[] public Candidates;\r\n\r\n}",
  "sourcePath": "D:/poli/Pracownia_Problemowa/voting-system/voting-system-api/voting-system-api/contracts/VotingSystem.sol",
  "compiler": {
    "name": "solc",
    "version": "0.5.16+commit.9c3226ce.Emscripten.clang"
  },
  "schemaVersion": "3.3.4",
  "updatedAt": "2021-04-26T13:41:33.570Z",
  "devdoc": {
    "methods": {}
  },
  "userdoc": {
    "methods": {}
  }
}