{
  "contractName": "VotingSystem",
  "abi": [
    {
      "anonymous": false,
      "inputs": [
        {
          "components": [
            {
              "internalType": "address",
              "name": "KeyValue",
              "type": "address"
            },
            {
              "internalType": "uint256",
              "name": "ElectionId",
              "type": "uint256"
            },
            {
              "internalType": "string",
              "name": "Voter",
              "type": "string"
            },
            {
              "internalType": "address",
              "name": "VoterAddress",
              "type": "address"
            },
            {
              "internalType": "bool",
              "name": "ValidKey",
              "type": "bool"
            }
          ],
          "indexed": false,
          "internalType": "struct VotingSystem.key[]",
          "name": "newKeys",
          "type": "tuple[]"
        }
      ],
      "name": "UserAddedToElection",
      "type": "event"
    },
    {
      "constant": true,
      "inputs": [
        {
          "internalType": "uint256",
          "name": "",
          "type": "uint256"
        }
      ],
      "name": "elections",
      "outputs": [
        {
          "internalType": "uint256",
          "name": "ElectionId",
          "type": "uint256"
        },
        {
          "internalType": "string",
          "name": "Title",
          "type": "string"
        },
        {
          "internalType": "uint64",
          "name": "DateFrom",
          "type": "uint64"
        },
        {
          "internalType": "uint64",
          "name": "DateTo",
          "type": "uint64"
        },
        {
          "internalType": "uint8",
          "name": "KeysPerVoter",
          "type": "uint8"
        }
      ],
      "payable": false,
      "stateMutability": "view",
      "type": "function"
    },
    {
      "constant": true,
      "inputs": [],
      "name": "getElections",
      "outputs": [
        {
          "components": [
            {
              "internalType": "uint256",
              "name": "ElectionId",
              "type": "uint256"
            },
            {
              "internalType": "string",
              "name": "Title",
              "type": "string"
            },
            {
              "internalType": "uint64",
              "name": "DateFrom",
              "type": "uint64"
            },
            {
              "internalType": "uint64",
              "name": "DateTo",
              "type": "uint64"
            },
            {
              "internalType": "uint8",
              "name": "KeysPerVoter",
              "type": "uint8"
            },
            {
              "internalType": "string[]",
              "name": "Candidates",
              "type": "string[]"
            }
          ],
          "internalType": "struct VotingSystem.election[]",
          "name": "electionList",
          "type": "tuple[]"
        }
      ],
      "payable": false,
      "stateMutability": "view",
      "type": "function"
    },
    {
      "constant": true,
      "inputs": [
        {
          "internalType": "uint256",
          "name": "id",
          "type": "uint256"
        }
      ],
      "name": "getDetails",
      "outputs": [
        {
          "components": [
            {
              "internalType": "uint256",
              "name": "ElectionId",
              "type": "uint256"
            },
            {
              "internalType": "string",
              "name": "Title",
              "type": "string"
            },
            {
              "internalType": "uint64",
              "name": "DateFrom",
              "type": "uint64"
            },
            {
              "internalType": "uint64",
              "name": "DateTo",
              "type": "uint64"
            },
            {
              "internalType": "uint8",
              "name": "KeysPerVoter",
              "type": "uint8"
            },
            {
              "components": [
                {
                  "internalType": "string",
                  "name": "Candidate",
                  "type": "string"
                },
                {
                  "internalType": "uint64",
                  "name": "Votes",
                  "type": "uint64"
                }
              ],
              "internalType": "struct VotingSystem.result[]",
              "name": "Results",
              "type": "tuple[]"
            }
          ],
          "internalType": "struct VotingSystem.electionDetails",
          "name": "Value",
          "type": "tuple"
        }
      ],
      "payable": false,
      "stateMutability": "view",
      "type": "function"
    },
    {
      "constant": false,
      "inputs": [
        {
          "internalType": "string",
          "name": "title",
          "type": "string"
        },
        {
          "internalType": "uint64",
          "name": "dateFrom",
          "type": "uint64"
        },
        {
          "internalType": "uint64",
          "name": "dateTo",
          "type": "uint64"
        },
        {
          "internalType": "uint8",
          "name": "keysPerVoter",
          "type": "uint8"
        },
        {
          "internalType": "string[]",
          "name": "candidateList",
          "type": "string[]"
        }
      ],
      "name": "addElection",
      "outputs": [],
      "payable": false,
      "stateMutability": "nonpayable",
      "type": "function"
    },
    {
      "constant": false,
      "inputs": [
        {
          "internalType": "uint256",
          "name": "electionId",
          "type": "uint256"
        },
        {
          "internalType": "address",
          "name": "voterAdress",
          "type": "address"
        },
        {
          "internalType": "string",
          "name": "voter",
          "type": "string"
        }
      ],
      "name": "addAddUserToElection",
      "outputs": [
        {
          "components": [
            {
              "internalType": "address",
              "name": "KeyValue",
              "type": "address"
            },
            {
              "internalType": "uint256",
              "name": "ElectionId",
              "type": "uint256"
            },
            {
              "internalType": "string",
              "name": "Voter",
              "type": "string"
            },
            {
              "internalType": "address",
              "name": "VoterAddress",
              "type": "address"
            },
            {
              "internalType": "bool",
              "name": "ValidKey",
              "type": "bool"
            }
          ],
          "internalType": "struct VotingSystem.key[]",
          "name": "newKeys",
          "type": "tuple[]"
        }
      ],
      "payable": true,
      "stateMutability": "payable",
      "type": "function"
    },
    {
      "constant": false,
      "inputs": [
        {
          "internalType": "string",
          "name": "voter",
          "type": "string"
        },
        {
          "internalType": "address",
          "name": "keyAdr",
          "type": "address"
        },
        {
          "internalType": "uint64",
          "name": "candidateId",
          "type": "uint64"
        }
      ],
      "name": "addVote",
      "outputs": [],
      "payable": false,
      "stateMutability": "nonpayable",
      "type": "function"
    },
    {
      "constant": true,
      "inputs": [
        {
          "internalType": "string",
          "name": "voter",
          "type": "string"
        },
        {
          "internalType": "address",
          "name": "keyAdr",
          "type": "address"
        }
      ],
      "name": "checkVote",
      "outputs": [
        {
          "internalType": "bool",
          "name": "voted",
          "type": "bool"
        }
      ],
      "payable": false,
      "stateMutability": "view",
      "type": "function"
    },
    {
      "constant": true,
      "inputs": [
        {
          "internalType": "string",
          "name": "voter",
          "type": "string"
        },
        {
          "internalType": "address",
          "name": "keyAdr",
          "type": "address"
        }
      ],
      "name": "startVote",
      "outputs": [
        {
          "components": [
            {
              "internalType": "uint256",
              "name": "ElectionId",
              "type": "uint256"
            },
            {
              "internalType": "string",
              "name": "Title",
              "type": "string"
            },
            {
              "internalType": "uint64",
              "name": "DateFrom",
              "type": "uint64"
            },
            {
              "internalType": "uint64",
              "name": "DateTo",
              "type": "uint64"
            },
            {
              "internalType": "uint8",
              "name": "KeysPerVoter",
              "type": "uint8"
            },
            {
              "internalType": "string[]",
              "name": "Candidates",
              "type": "string[]"
            }
          ],
          "internalType": "struct VotingSystem.election",
          "name": "el",
          "type": "tuple"
        }
      ],
      "payable": false,
      "stateMutability": "view",
      "type": "function"
    },
    {
      "constant": true,
      "inputs": [],
      "name": "isAdmin",
      "outputs": [
        {
          "internalType": "bool",
          "name": "",
          "type": "bool"
        }
      ],
      "payable": false,
      "stateMutability": "view",
      "type": "function"
    },
    {
      "constant": false,
      "inputs": [
        {
          "internalType": "address[]",
          "name": "newAdmins",
          "type": "address[]"
        }
      ],
      "name": "addAdminBatch",
      "outputs": [],
      "payable": false,
      "stateMutability": "nonpayable",
      "type": "function"
    },
    {
      "constant": false,
      "inputs": [
        {
          "internalType": "address",
          "name": "newAdmin",
          "type": "address"
        }
      ],
      "name": "addAdmin",
      "outputs": [],
      "payable": false,
      "stateMutability": "nonpayable",
      "type": "function"
    },
    {
      "constant": false,
      "inputs": [
        {
          "internalType": "address",
          "name": "admin",
          "type": "address"
        }
      ],
      "name": "removeAdmin",
      "outputs": [],
      "payable": false,
      "stateMutability": "nonpayable",
      "type": "function"
    }
  ],
  "bytecode": "0x60806040526000600560006101000a81548160ff02191690831515021790555034801561002b57600080fd5b506147048061003b6000396000f3fe6080604052600436106100a75760003560e01c8063987641cb11610064578063987641cb146101d55780639916cc35146102125780639f3a7f521461023b578063aba4757914610266578063b6db75a01461028f578063b93a89f7146102ba576100a7565b80631785f53c146100ac5780635e6fef01146100d55780636fcf362e14610116578063704802751461013f578063834e90cf146101685780638de34e9514610198575b600080fd5b3480156100b857600080fd5b506100d360048036036100ce91908101906133f0565b6102f7565b005b3480156100e157600080fd5b506100fc60048036036100f791908101906135bc565b61049c565b60405161010d9594939291906142f2565b60405180910390f35b34801561012257600080fd5b5061013d60048036036101389190810190613515565b6105ac565b005b34801561014b57600080fd5b50610166600480360361016191908101906133f0565b61085b565b005b610182600480360361017d91908101906135e5565b610991565b60405161018f91906140d1565b60405180910390f35b3480156101a457600080fd5b506101bf60048036036101ba919081019061345a565b610fe8565b6040516101cc91906142d0565b60405180910390f35b3480156101e157600080fd5b506101fc60048036036101f7919081019061345a565b6115fa565b60405161020991906140f3565b60405180910390f35b34801561021e57600080fd5b50610239600480360361023491908101906134ae565b6118dc565b005b34801561024757600080fd5b50610250612265565b60405161025d91906140af565b60405180910390f35b34801561027257600080fd5b5061028d60048036036102889190810190613419565b612566565b005b34801561029b57600080fd5b506102a4612751565b6040516102b191906140f3565b60405180910390f35b3480156102c657600080fd5b506102e160048036036102dc91908101906135bc565b6127a5565b6040516102ee91906142ae565b60405180910390f35b600460003373ffffffffffffffffffffffffffffffffffffffff1673ffffffffffffffffffffffffffffffffffffffff16815260200190815260200160002060009054906101000a900460ff16610383576040517f08c379a000000000000000000000000000000000000000000000000000000000815260040161037a906141ae565b60405180910390fd5b600560009054906101000a900460ff166103d2576040517f08c379a00000000000000000000000000000000000000000000000000000000081526004016103c99061422e565b60405180910390fd5b3373ffffffffffffffffffffffffffffffffffffffff168173ffffffffffffffffffffffffffffffffffffffff161415610441576040517f08c379a00000000000000000000000000000000000000000000000000000000081526004016104389061426e565b60405180910390fd5b6000600460008373ffffffffffffffffffffffffffffffffffffffff1673ffffffffffffffffffffffffffffffffffffffff16815260200190815260200160002060006101000a81548160ff02191690831515021790555050565b600681815481106104a957fe5b9060005260206000209060040201600091509050806000015490806001018054600181600116156101000203166002900480601f01602080910402602001604051908101604052809291908181526020018280546001816001161561010002031660029004801561055b5780601f106105305761010080835404028352916020019161055b565b820191906000526020600020905b81548152906001019060200180831161053e57829003601f168201915b5050505050908060020160009054906101000a900467ffffffffffffffff16908060020160089054906101000a900467ffffffffffffffff16908060020160109054906101000a900460ff16905085565b8060008090505b815181101561065e5760008090505b825181101561065057808214610643576106028383815181106105e157fe5b60200260200101518483815181106105f557fe5b6020026020010151612e33565b15610642576040517f08c379a00000000000000000000000000000000000000000000000000000000081526004016106399061428e565b60405180910390fd5b5b80806001019150506105c2565b5080806001019150506105b3565b50600460003373ffffffffffffffffffffffffffffffffffffffff1673ffffffffffffffffffffffffffffffffffffffff16815260200190815260200160002060009054906101000a900460ff166106eb576040517f08c379a00000000000000000000000000000000000000000000000000000000081526004016106e2906141ae565b60405180910390fd5b60004233604051602001610700929190614057565b6040516020818303038152906040528051906020012060001c905060066040518060c001604052808381526020018981526020018867ffffffffffffffff1681526020018767ffffffffffffffff1681526020018660ff16815260200185815250908060018154018082558091505090600182039060005260206000209060040201600090919290919091506000820151816000015560208201518160010190805190602001906107b2929190612e8c565b5060408201518160020160006101000a81548167ffffffffffffffff021916908367ffffffffffffffff16021790555060608201518160020160086101000a81548167ffffffffffffffff021916908367ffffffffffffffff16021790555060808201518160020160106101000a81548160ff021916908360ff16021790555060a082015181600301908051906020019061084e929190612f0c565b5050505050505050505050565b600460003373ffffffffffffffffffffffffffffffffffffffff1673ffffffffffffffffffffffffffffffffffffffff16815260200190815260200160002060009054906101000a900460ff166108e7576040517f08c379a00000000000000000000000000000000000000000000000000000000081526004016108de906141ae565b60405180910390fd5b600560009054906101000a900460ff16610936576040517f08c379a000000000000000000000000000000000000000000000000000000000815260040161092d9061422e565b60405180910390fd5b6001600460008373ffffffffffffffffffffffffffffffffffffffff1673ffffffffffffffffffffffffffffffffffffffff16815260200190815260200160002060006101000a81548160ff02191690831515021790555050565b6060600460003373ffffffffffffffffffffffffffffffffffffffff1673ffffffffffffffffffffffffffffffffffffffff16815260200190815260200160002060009054906101000a900460ff16610a1f576040517f08c379a0000000000000000000000000000000000000000000000000000000008152600401610a16906141ae565b60405180910390fd5b60001515600260008573ffffffffffffffffffffffffffffffffffffffff1673ffffffffffffffffffffffffffffffffffffffff168152602001908152602001600020600086815260200190815260200160002060009054906101000a900460ff16151514610ac3576040517f08c379a0000000000000000000000000000000000000000000000000000000008152600401610aba9061424e565b60405180910390fd5b60008090505b600680549050811015610f40578460068281548110610ae457fe5b9060005260206000209060040201600001541415610f33574260068281548110610b0a57fe5b906000526020600020906004020160020160009054906101000a900467ffffffffffffffff1667ffffffffffffffff1611610b4457600080fd5b60008060008673ffffffffffffffffffffffffffffffffffffffff1673ffffffffffffffffffffffffffffffffffffffff1681526020019081526020016000208054600181600116156101000203166002900490501415610bf357826000808673ffffffffffffffffffffffffffffffffffffffff1673ffffffffffffffffffffffffffffffffffffffff1681526020019081526020016000209080519060200190610bf1929190612f6c565b505b610cd36000808673ffffffffffffffffffffffffffffffffffffffff1673ffffffffffffffffffffffffffffffffffffffff1681526020019081526020016000208054600181600116156101000203166002900480601f016020809104026020016040519081016040528092919081815260200182805460018160011615610100020316600290048015610cc85780601f10610c9d57610100808354040283529160200191610cc8565b820191906000526020600020905b815481529060010190602001808311610cab57829003601f168201915b505050505084612e33565b610cdc57600080fd5b600060068281548110610ceb57fe5b906000526020600020906004020160020160109054906101000a900460ff1660ff16905080604051908082528060200260200182016040528015610d4957816020015b610d36612fec565b815260200190600190039081610d2e5790505b50925060008090505b81811015610f2c5760008142014340604051602001610d72929190614083565b6040516020818303038152906040528051906020012060001c9050610d95613049565b6040518060a001604052808373ffffffffffffffffffffffffffffffffffffffff1681526020018a81526020018881526020018973ffffffffffffffffffffffffffffffffffffffff16815260200160011515815250905080600160008473ffffffffffffffffffffffffffffffffffffffff1673ffffffffffffffffffffffffffffffffffffffff16815260200190815260200160002060008201518160000160006101000a81548173ffffffffffffffffffffffffffffffffffffffff021916908373ffffffffffffffffffffffffffffffffffffffff160217905550602082015181600101556040820151816002019080519060200190610e9a929190612e8c565b5060608201518160030160006101000a81548173ffffffffffffffffffffffffffffffffffffffff021916908373ffffffffffffffffffffffffffffffffffffffff16021790555060808201518160030160146101000a81548160ff02191690831515021790555090505080868481518110610f1257fe5b602002602001018190525050508080600101915050610d52565b5050610f40565b8080600101915050610ac9565b506001600260008573ffffffffffffffffffffffffffffffffffffffff1673ffffffffffffffffffffffffffffffffffffffff168152602001908152602001600020600086815260200190815260200160002060006101000a81548160ff0219169083151502179055507fb6db8bc678559103f3606a91c7397a96696ac489c86b9726831e695b8484291d81604051610fd991906140d1565b60405180910390a19392505050565b610ff06130a6565b600160008373ffffffffffffffffffffffffffffffffffffffff1673ffffffffffffffffffffffffffffffffffffffff16815260200190815260200160002060030160149054906101000a900460ff1661107f576040517f08c379a00000000000000000000000000000000000000000000000000000000081526004016110769061420e565b60405180910390fd5b61115f6000803373ffffffffffffffffffffffffffffffffffffffff1673ffffffffffffffffffffffffffffffffffffffff1681526020019081526020016000208054600181600116156101000203166002900480601f0160208091040260200160405190810160405280929190818152602001828054600181600116156101000203166002900480156111545780601f1061112957610100808354040283529160200191611154565b820191906000526020600020905b81548152906001019060200180831161113757829003601f168201915b505050505084612e33565b61119e576040517f08c379a00000000000000000000000000000000000000000000000000000000081526004016111959061416e565b60405180910390fd5b6111a6613049565b600160008473ffffffffffffffffffffffffffffffffffffffff1673ffffffffffffffffffffffffffffffffffffffff1681526020019081526020016000206040518060a00160405290816000820160009054906101000a900473ffffffffffffffffffffffffffffffffffffffff1673ffffffffffffffffffffffffffffffffffffffff1673ffffffffffffffffffffffffffffffffffffffff16815260200160018201548152602001600282018054600181600116156101000203166002900480601f0160208091040260200160405190810160405280929190818152602001828054600181600116156101000203166002900480156112e95780601f106112be576101008083540402835291602001916112e9565b820191906000526020600020905b8154815290600101906020018083116112cc57829003601f168201915b505050505081526020016003820160009054906101000a900473ffffffffffffffffffffffffffffffffffffffff1673ffffffffffffffffffffffffffffffffffffffff1673ffffffffffffffffffffffffffffffffffffffff1681526020016003820160149054906101000a900460ff161515151581525050905060008090505b6006805490508110156115f25781602001516006828154811061138a57fe5b90600052602060002090600402016000015414156115e557600681815481106113af57fe5b90600052602060002090600402016040518060c001604052908160008201548152602001600182018054600181600116156101000203166002900480601f01602080910402602001604051908101604052809291908181526020018280546001816001161561010002031660029004801561146b5780601f106114405761010080835404028352916020019161146b565b820191906000526020600020905b81548152906001019060200180831161144e57829003601f168201915b505050505081526020016002820160009054906101000a900467ffffffffffffffff1667ffffffffffffffff1667ffffffffffffffff1681526020016002820160089054906101000a900467ffffffffffffffff1667ffffffffffffffff1667ffffffffffffffff1681526020016002820160109054906101000a900460ff1660ff1660ff16815260200160038201805480602002602001604051908101604052809291908181526020016000905b828210156115d6578382906000526020600020018054600181600116156101000203166002900480601f0160208091040260200160405190810160405280929190818152602001828054600181600116156101000203166002900480156115c25780601f10611597576101008083540402835291602001916115c2565b820191906000526020600020905b8154815290600101906020018083116115a557829003601f168201915b50505050508152602001906001019061151a565b505050508152505092506115f2565b808060010191505061136b565b505092915050565b6000806000803373ffffffffffffffffffffffffffffffffffffffff1673ffffffffffffffffffffffffffffffffffffffff16815260200190815260200160002080546001816001161561010002031660029004905011611690576040517f08c379a00000000000000000000000000000000000000000000000000000000081526004016116879061418e565b60405180910390fd5b6117706000803373ffffffffffffffffffffffffffffffffffffffff1673ffffffffffffffffffffffffffffffffffffffff1681526020019081526020016000208054600181600116156101000203166002900480601f0160208091040260200160405190810160405280929190818152602001828054600181600116156101000203166002900480156117655780601f1061173a57610100808354040283529160200191611765565b820191906000526020600020905b81548152906001019060200180831161174857829003601f168201915b505050505084612e33565b6117af576040517f08c379a00000000000000000000000000000000000000000000000000000000081526004016117a69061416e565b60405180910390fd5b60009050600060036000600160008673ffffffffffffffffffffffffffffffffffffffff1673ffffffffffffffffffffffffffffffffffffffff168152602001908152602001600020600101548152602001908152602001600020905060008090505b81805490508110156118d4573373ffffffffffffffffffffffffffffffffffffffff1682828154811061184157fe5b906000526020600020906002020160010160089054906101000a900473ffffffffffffffffffffffffffffffffffffffff1673ffffffffffffffffffffffffffffffffffffffff161480156118bd575081818154811061189d57fe5b9060005260206000209060020201600101601c9054906101000a900460ff165b156118c757600192505b8080600101915050611812565b505092915050565b81816118e6613049565b600160008473ffffffffffffffffffffffffffffffffffffffff1673ffffffffffffffffffffffffffffffffffffffff1681526020019081526020016000206040518060a00160405290816000820160009054906101000a900473ffffffffffffffffffffffffffffffffffffffff1673ffffffffffffffffffffffffffffffffffffffff1673ffffffffffffffffffffffffffffffffffffffff16815260200160018201548152602001600282018054600181600116156101000203166002900480601f016020809104026020016040519081016040528092919081815260200182805460018160011615610100020316600290048015611a295780601f106119fe57610100808354040283529160200191611a29565b820191906000526020600020905b815481529060010190602001808311611a0c57829003601f168201915b505050505081526020016003820160009054906101000a900473ffffffffffffffffffffffffffffffffffffffff1673ffffffffffffffffffffffffffffffffffffffff1673ffffffffffffffffffffffffffffffffffffffff1681526020016003820160149054906101000a900460ff1615151515815250509050611aad6130a6565b60008090505b600680549050811015611d3a57826020015160068281548110611ad257fe5b9060005260206000209060040201600001541415611d2d5760068181548110611af757fe5b90600052602060002090600402016040518060c001604052908160008201548152602001600182018054600181600116156101000203166002900480601f016020809104026020016040519081016040528092919081815260200182805460018160011615610100020316600290048015611bb35780601f10611b8857610100808354040283529160200191611bb3565b820191906000526020600020905b815481529060010190602001808311611b9657829003601f168201915b505050505081526020016002820160009054906101000a900467ffffffffffffffff1667ffffffffffffffff1667ffffffffffffffff1681526020016002820160089054906101000a900467ffffffffffffffff1667ffffffffffffffff1667ffffffffffffffff1681526020016002820160109054906101000a900460ff1660ff1660ff16815260200160038201805480602002602001604051908101604052809291908181526020016000905b82821015611d1e578382906000526020600020018054600181600116156101000203166002900480601f016020809104026020016040519081016040528092919081815260200182805460018160011615610100020316600290048015611d0a5780601f10611cdf57610100808354040283529160200191611d0a565b820191906000526020600020905b815481529060010190602001808311611ced57829003601f168201915b505050505081526020019060010190611c62565b50505050815250509150611d3a565b8080600101915050611ab3565b508267ffffffffffffffff168160a001515111611d8c576040517f08c379a0000000000000000000000000000000000000000000000000000000008152600401611d839061412e565b60405180910390fd5b600160008773ffffffffffffffffffffffffffffffffffffffff1673ffffffffffffffffffffffffffffffffffffffff16815260200190815260200160002060030160149054906101000a900460ff16611e1b576040517f08c379a0000000000000000000000000000000000000000000000000000000008152600401611e129061420e565b60405180910390fd5b611efb6000803373ffffffffffffffffffffffffffffffffffffffff1673ffffffffffffffffffffffffffffffffffffffff1681526020019081526020016000208054600181600116156101000203166002900480601f016020809104026020016040519081016040528092919081815260200182805460018160011615610100020316600290048015611ef05780601f10611ec557610100808354040283529160200191611ef0565b820191906000526020600020905b815481529060010190602001808311611ed357829003601f168201915b505050505088612e33565b611f3a576040517f08c379a0000000000000000000000000000000000000000000000000000000008152600401611f319061416e565b60405180910390fd5b600060036000600160008a73ffffffffffffffffffffffffffffffffffffffff1673ffffffffffffffffffffffffffffffffffffffff168152602001908152602001600020600101548152602001908152602001600020905060008090505b818054905081101561205a573373ffffffffffffffffffffffffffffffffffffffff16828281548110611fc857fe5b906000526020600020906002020160010160089054906101000a900473ffffffffffffffffffffffffffffffffffffffff1673ffffffffffffffffffffffffffffffffffffffff16141561204d57600082828154811061202457fe5b9060005260206000209060020201600101601c6101000a81548160ff0219169083151502179055505b8080600101915050611f99565b50806040518060a001604052808973ffffffffffffffffffffffffffffffffffffffff1681526020018867ffffffffffffffff1681526020014267ffffffffffffffff1681526020013373ffffffffffffffffffffffffffffffffffffffff168152602001600115158152509080600181540180825580915050906001820390600052602060002090600202016000909192909190915060008201518160000160006101000a81548173ffffffffffffffffffffffffffffffffffffffff021916908373ffffffffffffffffffffffffffffffffffffffff16021790555060208201518160000160146101000a81548167ffffffffffffffff021916908367ffffffffffffffff16021790555060408201518160010160006101000a81548167ffffffffffffffff021916908367ffffffffffffffff16021790555060608201518160010160086101000a81548173ffffffffffffffffffffffffffffffffffffffff021916908373ffffffffffffffffffffffffffffffffffffffff160217905550608082015181600101601c6101000a81548160ff0219169083151502179055505050506000600160008973ffffffffffffffffffffffffffffffffffffffff1673ffffffffffffffffffffffffffffffffffffffff16815260200190815260200160002060030160146101000a81548160ff0219169083151502179055505050505050505050565b6060600460003373ffffffffffffffffffffffffffffffffffffffff1673ffffffffffffffffffffffffffffffffffffffff16815260200190815260200160002060009054906101000a900460ff166122f3576040517f08c379a00000000000000000000000000000000000000000000000000000000081526004016122ea906141ae565b60405180910390fd5b6006805480602002602001604051908101604052809291908181526020016000905b8282101561255d57838290600052602060002090600402016040518060c001604052908160008201548152602001600182018054600181600116156101000203166002900480601f0160208091040260200160405190810160405280929190818152602001828054600181600116156101000203166002900480156123db5780601f106123b0576101008083540402835291602001916123db565b820191906000526020600020905b8154815290600101906020018083116123be57829003601f168201915b505050505081526020016002820160009054906101000a900467ffffffffffffffff1667ffffffffffffffff1667ffffffffffffffff1681526020016002820160089054906101000a900467ffffffffffffffff1667ffffffffffffffff1667ffffffffffffffff1681526020016002820160109054906101000a900460ff1660ff1660ff16815260200160038201805480602002602001604051908101604052809291908181526020016000905b82821015612546578382906000526020600020018054600181600116156101000203166002900480601f0160208091040260200160405190810160405280929190818152602001828054600181600116156101000203166002900480156125325780601f1061250757610100808354040283529160200191612532565b820191906000526020600020905b81548152906001019060200180831161251557829003601f168201915b50505050508152602001906001019061248a565b505050508152505081526020019060010190612315565b50505050905090565b80600080905060008090505b82518110156125d45782818151811061258757fe5b602002602001015173ffffffffffffffffffffffffffffffffffffffff163373ffffffffffffffffffffffffffffffffffffffff1614156125c757600191505b8080600101915050612572565b5080612615576040517f08c379a000000000000000000000000000000000000000000000000000000000815260040161260c9061410e565b60405180910390fd5b600560009054906101000a900460ff1615612665576040517f08c379a000000000000000000000000000000000000000000000000000000000815260040161265c906141ee565b60405180910390fd5b60008351116126a9576040517f08c379a00000000000000000000000000000000000000000000000000000000081526004016126a09061414e565b60405180910390fd5b60008090505b8351811015612730576001600460008684815181106126ca57fe5b602002602001015173ffffffffffffffffffffffffffffffffffffffff1673ffffffffffffffffffffffffffffffffffffffff16815260200190815260200160002060006101000a81548160ff02191690831515021790555080806001019150506126af565b506001600560006101000a81548160ff021916908315150217905550505050565b6000600460003373ffffffffffffffffffffffffffffffffffffffff1673ffffffffffffffffffffffffffffffffffffffff16815260200190815260200160002060009054906101000a900460ff16905090565b6127ad6130f3565b600460003373ffffffffffffffffffffffffffffffffffffffff1673ffffffffffffffffffffffffffffffffffffffff16815260200190815260200160002060009054906101000a900460ff16612839576040517f08c379a0000000000000000000000000000000000000000000000000000000008152600401612830906141ae565b60405180910390fd5b60008090505b600680549050811015612df257826006828154811061285a57fe5b9060005260206000209060040201600001541415612de55761287a6130a6565b6006828154811061288757fe5b90600052602060002090600402016040518060c001604052908160008201548152602001600182018054600181600116156101000203166002900480601f0160208091040260200160405190810160405280929190818152602001828054600181600116156101000203166002900480156129435780601f1061291857610100808354040283529160200191612943565b820191906000526020600020905b81548152906001019060200180831161292657829003601f168201915b505050505081526020016002820160009054906101000a900467ffffffffffffffff1667ffffffffffffffff1667ffffffffffffffff1681526020016002820160089054906101000a900467ffffffffffffffff1667ffffffffffffffff1667ffffffffffffffff1681526020016002820160109054906101000a900460ff1660ff1660ff16815260200160038201805480602002602001604051908101604052809291908181526020016000905b82821015612aae578382906000526020600020018054600181600116156101000203166002900480601f016020809104026020016040519081016040528092919081815260200182805460018160011615610100020316600290048015612a9a5780601f10612a6f57610100808354040283529160200191612a9a565b820191906000526020600020905b815481529060010190602001808311612a7d57829003601f168201915b5050505050815260200190600101906129f2565b5050505081525050905060608160a0015151604051908082528060200260200182016040528015612af957816020015b612ae6613140565b815260200190600190039081612ade5790505b50905060008090505b8260a0015151811015612b4f578260a001518181518110612b1f57fe5b6020026020010151828281518110612b3357fe5b6020026020010151600001819052508080600101915050612b02565b5060606003600084600001518152602001908152602001600020805480602002602001604051908101604052809291908181526020016000905b82821015612ce657838290600052602060002090600202016040518060a00160405290816000820160009054906101000a900473ffffffffffffffffffffffffffffffffffffffff1673ffffffffffffffffffffffffffffffffffffffff1673ffffffffffffffffffffffffffffffffffffffff1681526020016000820160149054906101000a900467ffffffffffffffff1667ffffffffffffffff1667ffffffffffffffff1681526020016001820160009054906101000a900467ffffffffffffffff1667ffffffffffffffff1667ffffffffffffffff1681526020016001820160089054906101000a900473ffffffffffffffffffffffffffffffffffffffff1673ffffffffffffffffffffffffffffffffffffffff1673ffffffffffffffffffffffffffffffffffffffff16815260200160018201601c9054906101000a900460ff16151515158152505081526020019060010190612b89565b50505050905060008090505b8151811015612d8157818181518110612d0757fe5b60200260200101516080015115612d7457600183838381518110612d2757fe5b60200260200101516020015167ffffffffffffffff1681518110612d4757fe5b60200260200101516020018181510191509067ffffffffffffffff16908167ffffffffffffffff16815250505b8080600101915050612cf2565b506040518060c001604052808460000151815260200184602001518152602001846040015167ffffffffffffffff168152602001846060015167ffffffffffffffff168152602001846080015160ff16815260200183815250945050505050612e2e565b808060010191505061283f565b506040517f08c379a0000000000000000000000000000000000000000000000000000000008152600401612e25906141ce565b60405180910390fd5b919050565b600081604051602001612e469190614040565b6040516020818303038152906040528051906020012083604051602001612e6d9190614040565b6040516020818303038152906040528051906020012014905092915050565b828054600181600116156101000203166002900490600052602060002090601f016020900481019282601f10612ecd57805160ff1916838001178555612efb565b82800160010185558215612efb579182015b82811115612efa578251825591602001919060010190612edf565b5b509050612f089190613164565b5090565b828054828255906000526020600020908101928215612f5b579160200282015b82811115612f5a578251829080519060200190612f4a929190612e8c565b5091602001919060010190612f2c565b5b509050612f689190613189565b5090565b828054600181600116156101000203166002900490600052602060002090601f016020900481019282601f10612fad57805160ff1916838001178555612fdb565b82800160010185558215612fdb579182015b82811115612fda578251825591602001919060010190612fbf565b5b509050612fe89190613164565b5090565b6040518060a00160405280600073ffffffffffffffffffffffffffffffffffffffff1681526020016000815260200160608152602001600073ffffffffffffffffffffffffffffffffffffffff1681526020016000151581525090565b6040518060a00160405280600073ffffffffffffffffffffffffffffffffffffffff1681526020016000815260200160608152602001600073ffffffffffffffffffffffffffffffffffffffff1681526020016000151581525090565b6040518060c001604052806000815260200160608152602001600067ffffffffffffffff168152602001600067ffffffffffffffff168152602001600060ff168152602001606081525090565b6040518060c001604052806000815260200160608152602001600067ffffffffffffffff168152602001600067ffffffffffffffff168152602001600060ff168152602001606081525090565b604051806040016040528060608152602001600067ffffffffffffffff1681525090565b61318691905b8082111561318257600081600090555060010161316a565b5090565b90565b6131b291905b808211156131ae57600081816131a591906131b5565b5060010161318f565b5090565b90565b50805460018160011615610100020316600290046000825580601f106131db57506131fa565b601f0160209004906000526020600020908101906131f99190613164565b5b50565b60008135905061320c81614665565b92915050565b600082601f83011261322357600080fd5b813561323661323182614379565b61434c565b9150818183526020840193506020810190508385602084028201111561325b57600080fd5b60005b8381101561328b578161327188826131fd565b84526020840193506020830192505060018101905061325e565b5050505092915050565b600082601f8301126132a657600080fd5b81356132b96132b4826143a1565b61434c565b9150818183526020840193506020810190508360005b838110156132ff57813586016132e58882613309565b8452602084019350602083019250506001810190506132cf565b5050505092915050565b600082601f83011261331a57600080fd5b813561332d613328826143c9565b61434c565b9150808252602083016020830185838301111561334957600080fd5b6133548382846145cd565b50505092915050565b600082601f83011261336e57600080fd5b813561338161337c826143f5565b61434c565b9150808252602083016020830185838301111561339d57600080fd5b6133a88382846145cd565b50505092915050565b6000813590506133c08161467c565b92915050565b6000813590506133d581614693565b92915050565b6000813590506133ea816146aa565b92915050565b60006020828403121561340257600080fd5b6000613410848285016131fd565b91505092915050565b60006020828403121561342b57600080fd5b600082013567ffffffffffffffff81111561344557600080fd5b61345184828501613212565b91505092915050565b6000806040838503121561346d57600080fd5b600083013567ffffffffffffffff81111561348757600080fd5b6134938582860161335d565b92505060206134a4858286016131fd565b9150509250929050565b6000806000606084860312156134c357600080fd5b600084013567ffffffffffffffff8111156134dd57600080fd5b6134e98682870161335d565b93505060206134fa868287016131fd565b925050604061350b868287016133c6565b9150509250925092565b600080600080600060a0868803121561352d57600080fd5b600086013567ffffffffffffffff81111561354757600080fd5b6135538882890161335d565b9550506020613564888289016133c6565b9450506040613575888289016133c6565b9350506060613586888289016133db565b925050608086013567ffffffffffffffff8111156135a357600080fd5b6135af88828901613295565b9150509295509295909350565b6000602082840312156135ce57600080fd5b60006135dc848285016133b1565b91505092915050565b6000806000606084860312156135fa57600080fd5b6000613608868287016133b1565b9350506020613619868287016131fd565b925050604084013567ffffffffffffffff81111561363657600080fd5b6136428682870161335d565b9150509250925092565b600061365883836138fc565b905092915050565b600061366c8383613e8c565b905092915050565b60006136808383613f1c565b905092915050565b60006136948383613f92565b905092915050565b6136ad6136a88261455a565b61460f565b82525050565b6136bc81614548565b82525050565b60006136cd82614461565b6136d781856144d7565b9350836020820285016136e985614421565b8060005b858110156137255784840389528151613706858261364c565b9450613711836144a3565b925060208a019950506001810190506136ed565b50829750879550505050505092915050565b60006137428261446c565b61374c81856144e8565b93508360208202850161375e85614431565b8060005b8581101561379a578484038952815161377b8582613660565b9450613786836144b0565b925060208a01995050600181019050613762565b50829750879550505050505092915050565b60006137b782614477565b6137c181856144f9565b9350836020820285016137d385614441565b8060005b8581101561380f57848403895281516137f08582613674565b94506137fb836144bd565b925060208a019950506001810190506137d7565b50829750879550505050505092915050565b600061382c82614482565b613836818561450a565b93508360208202850161384885614451565b8060005b8581101561388457848403895281516138658582613688565b9450613870836144ca565b925060208a0199505060018101905061384c565b50829750879550505050505092915050565b61389f8161456c565b82525050565b6138ae8161456c565b82525050565b6138c56138c082614578565b614621565b82525050565b60006138d682614498565b6138e0818561453d565b93506138f08185602086016145dc565b80840191505092915050565b60006139078261448d565b613911818561451b565b93506139218185602086016145dc565b61392a81614647565b840191505092915050565b60006139408261448d565b61394a818561452c565b935061395a8185602086016145dc565b61396381614647565b840191505092915050565b600061397b60238361452c565b91507f53656e6465722068617320746f206265206f6e65206f66207468652061646d6960008301527f6e732e00000000000000000000000000000000000000000000000000000000006020830152604082019050919050565b60006139e160188361452c565b91507f43616e64696461746520646f65736e27742065786973742e00000000000000006000830152602082019050919050565b6000613a21600d8361452c565b91507f4c69737420697320656d707479000000000000000000000000000000000000006000830152602082019050919050565b6000613a61601d8361452c565b91507f53656e64657220616e6420766f74657220646f6e2774206d617463682e0000006000830152602082019050919050565b6000613aa160148361452c565b91507f566f74657220646f65736e27742065786973742e0000000000000000000000006000830152602082019050919050565b6000613ae1600e8361452c565b91507f4e6f207065726d697373696f6e2e0000000000000000000000000000000000006000830152602082019050919050565b6000613b2160138361452c565b91507f456c656374696f6e206e6f7420666f756e642e000000000000000000000000006000830152602082019050919050565b6000613b6160418361452c565b91507f41646d696e206261746368206973206f6e6c792061766169626c65206f6e636560008301527f207768696c65207468657265206973206e6f2061646d696e6973747261746f7260208301527f2e000000000000000000000000000000000000000000000000000000000000006040830152606082019050919050565b6000613bed600e8361452c565b91507f4b6579206e6f742076616c69642e0000000000000000000000000000000000006000830152602082019050919050565b6000613c2d60158361452c565b91507f4e6f2061646d696e2062617463682061646465642e00000000000000000000006000830152602082019050919050565b6000613c6d60278361452c565b91507f4b65797320666f72207468697320757365722068617665206265656e2067656e60008301527f6572617465642e000000000000000000000000000000000000000000000000006020830152604082019050919050565b6000613cd360248361452c565b91507f41646d696e2063616e27742074616b6520686973206f776e2070726976696c6560008301527f6765732e000000000000000000000000000000000000000000000000000000006020830152604082019050919050565b6000613d3960178361452c565b91507f43616e646964617465206973206e6f7420756e697175650000000000000000006000830152602082019050919050565b600060c083016000830151613d846000860182613fcf565b5060208301518482036020860152613d9c82826138fc565b9150506040830151613db16040860182614004565b506060830151613dc46060860182614004565b506080830151613dd76080860182614022565b5060a083015184820360a0860152613def8282613821565b9150508091505092915050565b600060c083016000830151613e146000860182613fcf565b5060208301518482036020860152613e2c82826138fc565b9150506040830151613e416040860182614004565b506060830151613e546060860182614004565b506080830151613e676080860182614022565b5060a083015184820360a0860152613e7f82826136c2565b9150508091505092915050565b600060c083016000830151613ea46000860182613fcf565b5060208301518482036020860152613ebc82826138fc565b9150506040830151613ed16040860182614004565b506060830151613ee46060860182614004565b506080830151613ef76080860182614022565b5060a083015184820360a0860152613f0f82826136c2565b9150508091505092915050565b600060a083016000830151613f3460008601826136b3565b506020830151613f476020860182613fcf565b5060408301518482036040860152613f5f82826138fc565b9150506060830151613f7460608601826136b3565b506080830151613f876080860182613896565b508091505092915050565b60006040830160008301518482036000860152613faf82826138fc565b9150506020830151613fc46020860182614004565b508091505092915050565b613fd8816145a2565b82525050565b613fe7816145a2565b82525050565b613ffe613ff9826145a2565b61463d565b82525050565b61400d816145ac565b82525050565b61401c816145ac565b82525050565b61402b816145c0565b82525050565b61403a816145c0565b82525050565b600061404c82846138cb565b915081905092915050565b60006140638285613fed565b602082019150614073828461369c565b6014820191508190509392505050565b600061408f8285613fed565b60208201915061409f82846138b4565b6020820191508190509392505050565b600060208201905081810360008301526140c98184613737565b905092915050565b600060208201905081810360008301526140eb81846137ac565b905092915050565b600060208201905061410860008301846138a5565b92915050565b600060208201905081810360008301526141278161396e565b9050919050565b60006020820190508181036000830152614147816139d4565b9050919050565b6000602082019050818103600083015261416781613a14565b9050919050565b6000602082019050818103600083015261418781613a54565b9050919050565b600060208201905081810360008301526141a781613a94565b9050919050565b600060208201905081810360008301526141c781613ad4565b9050919050565b600060208201905081810360008301526141e781613b14565b9050919050565b6000602082019050818103600083015261420781613b54565b9050919050565b6000602082019050818103600083015261422781613be0565b9050919050565b6000602082019050818103600083015261424781613c20565b9050919050565b6000602082019050818103600083015261426781613c60565b9050919050565b6000602082019050818103600083015261428781613cc6565b9050919050565b600060208201905081810360008301526142a781613d2c565b9050919050565b600060208201905081810360008301526142c88184613d6c565b905092915050565b600060208201905081810360008301526142ea8184613dfc565b905092915050565b600060a0820190506143076000830188613fde565b81810360208301526143198187613935565b90506143286040830186614013565b6143356060830185614013565b6143426080830184614031565b9695505050505050565b6000604051905081810181811067ffffffffffffffff8211171561436f57600080fd5b8060405250919050565b600067ffffffffffffffff82111561439057600080fd5b602082029050602081019050919050565b600067ffffffffffffffff8211156143b857600080fd5b602082029050602081019050919050565b600067ffffffffffffffff8211156143e057600080fd5b601f19601f8301169050602081019050919050565b600067ffffffffffffffff82111561440c57600080fd5b601f19601f8301169050602081019050919050565b6000819050602082019050919050565b6000819050602082019050919050565b6000819050602082019050919050565b6000819050602082019050919050565b600081519050919050565b600081519050919050565b600081519050919050565b600081519050919050565b600081519050919050565b600081519050919050565b6000602082019050919050565b6000602082019050919050565b6000602082019050919050565b6000602082019050919050565b600082825260208201905092915050565b600082825260208201905092915050565b600082825260208201905092915050565b600082825260208201905092915050565b600082825260208201905092915050565b600082825260208201905092915050565b600081905092915050565b600061455382614582565b9050919050565b600061456582614582565b9050919050565b60008115159050919050565b6000819050919050565b600073ffffffffffffffffffffffffffffffffffffffff82169050919050565b6000819050919050565b600067ffffffffffffffff82169050919050565b600060ff82169050919050565b82818337600083830152505050565b60005b838110156145fa5780820151818401526020810190506145df565b83811115614609576000848401525b50505050565b600061461a8261462b565b9050919050565b6000819050919050565b600061463682614658565b9050919050565b6000819050919050565b6000601f19601f8301169050919050565b60008160601b9050919050565b61466e81614548565b811461467957600080fd5b50565b614685816145a2565b811461469057600080fd5b50565b61469c816145ac565b81146146a757600080fd5b50565b6146b3816145c0565b81146146be57600080fd5b5056fea365627a7a723158207d13d12d2d393e73d0c072064bacf3fb62a0846e282297d2c999c4141c749fb86c6578706572696d656e74616cf564736f6c63430005100040",
  "source": "// SPDX-License-Identifier: MIT\r\npragma solidity >=0.4.22 <0.9.0;\r\npragma experimental ABIEncoderV2;\r\n\r\ncontract VotingSystem {\r\n    \r\n    struct election {\r\n        uint ElectionId;\r\n        string Title;\r\n        uint64 DateFrom;\r\n        uint64 DateTo;\r\n        uint8 KeysPerVoter;\r\n        string[] Candidates;\r\n    }\r\n\r\n    struct electionDetails {\r\n        uint ElectionId;\r\n        string Title;\r\n        uint64 DateFrom;\r\n        uint64 DateTo;\r\n        uint8 KeysPerVoter;\r\n        result[] Results;\r\n    }\r\n\r\n    struct key {\r\n        address KeyValue;\r\n        uint ElectionId;\r\n        string Voter;\r\n        address VoterAddress;\r\n        bool ValidKey;\r\n    }\r\n\r\n    struct vote {\r\n        address KeyValue;\r\n        uint64 CandidateId;\r\n        uint64 VotedDate;\r\n        address VoterAddress;\r\n        bool Latest;\r\n    }\r\n\r\n    struct result {\r\n        string Candidate;\r\n        uint64 Votes;\r\n    }\r\n\r\n    struct generated {\r\n        address VoterAddress;\r\n        uint ElectionId;\r\n    }\r\n\r\n    mapping (address => string) voters;\r\n    mapping (address => key) keys;\r\n    mapping (address => mapping (uint => bool)) generatedKeys;\r\n    mapping (uint => vote[]) votes; //mapping vote array for every election\r\n\r\n    mapping (address => bool) admins; \r\n    bool adminsAdded = false; \r\n\r\n    election[] public elections;\r\n\r\n\r\n    function getElections() public view \r\n    adminOnly()\r\n    returns(election[] memory electionList) \r\n    {\r\n        electionList = elections;\r\n    }\r\n\r\n\r\n    function getDetails(uint id) public view \r\n    adminOnly()\r\n    //onlyAfterElection(id)\r\n    returns(electionDetails memory Value) \r\n    {\r\n        for(uint i=0; i < elections.length; i++){\r\n            if (elections[i].ElectionId == id){\r\n                election memory el = elections[i];\r\n                result[] memory results = new result[](el.Candidates.length);\r\n                for(uint j=0; j < el.Candidates.length; j++){\r\n                    results[j].Candidate = el.Candidates[j];\r\n                }\r\n\r\n                vote[] memory electionVotes = votes[el.ElectionId];\r\n                for(uint j=0; j < electionVotes.length; j++){\r\n                    if (electionVotes[j].Latest){\r\n                        results[electionVotes[j].CandidateId].Votes += 1;\r\n                    }\r\n                }\r\n\r\n                return electionDetails(el.ElectionId, el.Title, el.DateFrom, el.DateTo, el.KeysPerVoter, results);\r\n            }\r\n        }\r\n        revert(\"Election not found.\");\r\n    }\r\n\r\n\r\n    function addElection(string memory title, uint64 dateFrom, uint64 dateTo, uint8 keysPerVoter, string[] memory candidateList) public \r\n        onlyUniqueCandidates(candidateList)\r\n        adminOnly()\r\n    {\r\n        uint id = uint(keccak256(abi.encodePacked(block.timestamp, msg.sender)));\r\n\r\n        elections.push(election(id, title, dateFrom, dateTo, keysPerVoter, candidateList));\r\n    }\r\n\r\n\r\n    event UserAddedToElection(key[] newKeys);\r\n\r\n\r\n    function addAddUserToElection(uint electionId, address voterAdress, string memory voter) public payable \r\n    adminOnly()\r\n    returns(key[] memory newKeys)\r\n    {\r\n        require(generatedKeys[voterAdress][electionId] == false, \"Keys for this user have been generated.\");\r\n        for(uint i=0; i < elections.length; i++){\r\n            if (elections[i].ElectionId == electionId){\r\n                require(elections[i].DateFrom > block.timestamp);\r\n\r\n                if (bytes(voters[voterAdress]).length==0){\r\n                    voters[voterAdress] = voter;\r\n                }\r\n                require(equal(voters[voterAdress], voter));\r\n\r\n                uint keysCount = elections[i].KeysPerVoter;\r\n                newKeys = new key[](keysCount);\r\n                for(uint j=0; j < keysCount; j++){\r\n                    address addr = address(uint160(uint(keccak256(abi.encodePacked(block.timestamp + j, blockhash(block.number))))));\r\n                    key memory k = key(addr, electionId, voter, voterAdress, true);\r\n                    keys[addr] = k;\r\n                    newKeys[j] = k;\r\n                }\r\n                break;\r\n            }\r\n        }\r\n        generatedKeys[voterAdress][electionId] = true;\r\n        emit UserAddedToElection(newKeys);\r\n    }\r\n\r\n\r\n    function addVote(string memory voter, address keyAdr, uint64 candidateId ) public \r\n        //onlyDuringElection(keyAdr)\r\n        candidateExist(keyAdr, candidateId)\r\n        {\r\n        require(keys[keyAdr].ValidKey, \"Key not valid.\");\r\n        require(equal(voters[msg.sender], voter), \"Sender and voter don't match.\");\r\n\r\n        vote[] storage votesb = votes[keys[keyAdr].ElectionId];\r\n        for(uint i=0; i < votesb.length; i++){\r\n            if (votesb[i].VoterAddress == msg.sender){\r\n                votesb[i].Latest = false;\r\n            }\r\n        }\r\n        votesb.push(vote(keyAdr, candidateId, uint64(block.timestamp), msg.sender, true));\r\n        keys[keyAdr].ValidKey = false;\r\n    }        \r\n\r\n\r\n    function checkVote(string memory voter, address keyAdr) public view\r\n    returns(bool voted) \r\n    {\r\n        require(bytes(voters[msg.sender]).length > 0, \"Voter doesn't exist.\");\r\n        require(equal(voters[msg.sender], voter), \"Sender and voter don't match.\");\r\n        \r\n        voted = false;\r\n        vote[] storage votesb = votes[keys[keyAdr].ElectionId];\r\n        for(uint i=0; i < votesb.length; i++){\r\n            if (votesb[i].VoterAddress == msg.sender && votesb[i].Latest) voted = true;\r\n        }\r\n    }  \r\n\r\n\r\n    function startVote(string memory voter, address keyAdr) public view\r\n    //onlyDuringElection(keyAdr)\r\n    returns(election memory el) {\r\n        require(keys[keyAdr].ValidKey, \"Key not valid.\");\r\n        require(equal(voters[msg.sender], voter), \"Sender and voter don't match.\");\r\n        \r\n        key memory k = keys[keyAdr];\r\n\r\n        for(uint i=0; i < elections.length; i++){\r\n            if (elections[i].ElectionId == k.ElectionId){\r\n                el = elections[i];\r\n                break;\r\n            }\r\n        }\r\n    }  \r\n\r\n\r\n    function equal(string memory a, string memory b) pure private returns(bool) {\r\n        return keccak256(abi.encodePacked(a)) == keccak256(abi.encodePacked(b));\r\n    }\r\n\r\n    function isAdmin() public view returns(bool) {\r\n        return admins[msg.sender];\r\n    }\r\n\r\n    function addAdminBatch(address[] memory newAdmins) public \r\n    senderExistsInBatch(newAdmins)\r\n    {\r\n        require(!adminsAdded, \"Admin batch is only avaible once while there is no administrator.\");\r\n        require(newAdmins.length > 0, \"List is empty\");\r\n\r\n        for(uint i=0; i < newAdmins.length; i++){\r\n           admins[newAdmins[i]] = true;\r\n        }\r\n        adminsAdded = true;\r\n    } \r\n\r\n\r\n    function addAdmin(address newAdmin) public \r\n    adminOnly()\r\n    {\r\n        require(adminsAdded, \"No admin batch added.\");\r\n        admins[newAdmin] = true;\r\n    } \r\n\r\n    function removeAdmin(address admin) public \r\n    adminOnly()\r\n    {\r\n        require(adminsAdded, \"No admin batch added.\");\r\n        require(admin != msg.sender, \"Admin can't take his own privileges.\");\r\n        admins[admin] = false;\r\n    } \r\n\r\n    modifier onlyUniqueCandidates(string[] memory candidateList) {\r\n        for(uint i=0; i < candidateList.length; i++){\r\n            for(uint j=0; j < candidateList.length; j++){\r\n                if (i != j){\r\n                    if (equal(candidateList[i], candidateList[j])){\r\n                        revert(\"Candidate is not unique\");\r\n                    }\r\n                }\r\n            }\r\n        }\r\n        _;\r\n    }\r\n\r\n\r\n    modifier adminOnly() {\r\n        if (!admins[msg.sender]) revert(\"No permission.\");\r\n        _;\r\n    }\r\n\r\n\r\n    modifier onlyDuringElection(address keyAdr) {\r\n        key memory k = keys[keyAdr];\r\n        election memory el;\r\n        for(uint i=0; i < elections.length; i++){\r\n            if (elections[i].ElectionId == k.ElectionId){\r\n                el = elections[i];\r\n                break;\r\n            }\r\n        }\r\n        if(el.DateFrom > block.timestamp || el.DateTo < block.timestamp) revert(\"Voting only allowed during the election.\");\r\n        _;\r\n    }\r\n\r\n    modifier onlyAfterElection(uint id) {\r\n        election memory el;\r\n        for(uint i=0; i < elections.length; i++){\r\n            if (elections[i].ElectionId == id){\r\n                el = elections[i];\r\n                break;\r\n            }\r\n        }\r\n        if(el.DateTo > block.timestamp) revert(\"Checking the results is only allowed after the eleciton.\");\r\n        _;\r\n    }\r\n\r\n    modifier senderExistsInBatch(address[] memory newAdmins) {\r\n        bool exists = false;\r\n        for(uint i=0; i < newAdmins.length; i++){\r\n            if (msg.sender == newAdmins[i]) exists = true;\r\n        }\r\n        if (!exists) revert(\"Sender has to be one of the admins.\");\r\n        _;\r\n    }\r\n\r\n    modifier candidateExist(address keyAdr, uint64 candidate) {\r\n        key memory k = keys[keyAdr];\r\n        election memory el;\r\n        for(uint i=0; i < elections.length; i++){\r\n            if (elections[i].ElectionId == k.ElectionId){\r\n                el = elections[i];\r\n                break;\r\n            }\r\n        }\r\n\r\n        if(el.Candidates.length <= candidate) revert(\"Candidate doesn't exist.\");\r\n        _;\r\n    }\r\n}\r\n",
  "sourcePath": "D:/poli/Pracownia_Problemowa/repo/voting_system/voting-system-api/voting-system-api/contracts/VotingSystem.sol",
  "compiler": {
    "name": "solc",
    "version": "0.5.16+commit.9c3226ce.Emscripten.clang"
  },
  "schemaVersion": "3.3.4",
  "updatedAt": "2021-06-06T18:39:24.113Z",
  "networkType": "ethereum",
  "devdoc": {
    "methods": {}
  },
  "userdoc": {
    "methods": {}
  }
}