{
  "contractName": "VotingSystem",
  "abi": [
    {
      "anonymous": false,
      "inputs": [
        {
          "components": [
            {
              "internalType": "address",
              "name": "KeyValue",
              "type": "address"
            },
            {
              "internalType": "uint256",
              "name": "ElectionId",
              "type": "uint256"
            },
            {
              "internalType": "string",
              "name": "Voter",
              "type": "string"
            },
            {
              "internalType": "address",
              "name": "VoterAddress",
              "type": "address"
            },
            {
              "internalType": "bool",
              "name": "ValidKey",
              "type": "bool"
            }
          ],
          "indexed": false,
          "internalType": "struct VotingSystem.key[]",
          "name": "newKeys",
          "type": "tuple[]"
        }
      ],
      "name": "UserAddedToElection",
      "type": "event"
    },
    {
      "constant": true,
      "inputs": [
        {
          "internalType": "uint256",
          "name": "",
          "type": "uint256"
        }
      ],
      "name": "elections",
      "outputs": [
        {
          "internalType": "uint256",
          "name": "ElectionId",
          "type": "uint256"
        },
        {
          "internalType": "string",
          "name": "Title",
          "type": "string"
        },
        {
          "internalType": "uint64",
          "name": "DateFrom",
          "type": "uint64"
        },
        {
          "internalType": "uint64",
          "name": "DateTo",
          "type": "uint64"
        },
        {
          "internalType": "uint8",
          "name": "KeysPerVoter",
          "type": "uint8"
        }
      ],
      "payable": false,
      "stateMutability": "view",
      "type": "function"
    },
    {
      "constant": true,
      "inputs": [],
      "name": "getElections",
      "outputs": [
        {
          "components": [
            {
              "internalType": "uint256",
              "name": "ElectionId",
              "type": "uint256"
            },
            {
              "internalType": "string",
              "name": "Title",
              "type": "string"
            },
            {
              "internalType": "uint64",
              "name": "DateFrom",
              "type": "uint64"
            },
            {
              "internalType": "uint64",
              "name": "DateTo",
              "type": "uint64"
            },
            {
              "internalType": "uint8",
              "name": "KeysPerVoter",
              "type": "uint8"
            },
            {
              "internalType": "string[]",
              "name": "Candidates",
              "type": "string[]"
            }
          ],
          "internalType": "struct VotingSystem.election[]",
          "name": "electionList",
          "type": "tuple[]"
        }
      ],
      "payable": false,
      "stateMutability": "view",
      "type": "function"
    },
    {
      "constant": true,
      "inputs": [
        {
          "internalType": "uint256",
          "name": "id",
          "type": "uint256"
        }
      ],
      "name": "getDetails",
      "outputs": [
        {
          "components": [
            {
              "internalType": "uint256",
              "name": "ElectionId",
              "type": "uint256"
            },
            {
              "internalType": "string",
              "name": "Title",
              "type": "string"
            },
            {
              "internalType": "uint64",
              "name": "DateFrom",
              "type": "uint64"
            },
            {
              "internalType": "uint64",
              "name": "DateTo",
              "type": "uint64"
            },
            {
              "internalType": "uint8",
              "name": "KeysPerVoter",
              "type": "uint8"
            },
            {
              "components": [
                {
                  "internalType": "string",
                  "name": "Candidate",
                  "type": "string"
                },
                {
                  "internalType": "uint64",
                  "name": "Votes",
                  "type": "uint64"
                }
              ],
              "internalType": "struct VotingSystem.result[]",
              "name": "Results",
              "type": "tuple[]"
            }
          ],
          "internalType": "struct VotingSystem.electionDetails",
          "name": "Value",
          "type": "tuple"
        }
      ],
      "payable": false,
      "stateMutability": "view",
      "type": "function"
    },
    {
      "constant": false,
      "inputs": [
        {
          "internalType": "string",
          "name": "title",
          "type": "string"
        },
        {
          "internalType": "uint64",
          "name": "dateFrom",
          "type": "uint64"
        },
        {
          "internalType": "uint64",
          "name": "dateTo",
          "type": "uint64"
        },
        {
          "internalType": "uint8",
          "name": "keysPerVoter",
          "type": "uint8"
        },
        {
          "internalType": "string[]",
          "name": "candidateList",
          "type": "string[]"
        }
      ],
      "name": "addElection",
      "outputs": [],
      "payable": false,
      "stateMutability": "nonpayable",
      "type": "function"
    },
    {
      "constant": false,
      "inputs": [
        {
          "internalType": "uint256",
          "name": "electionId",
          "type": "uint256"
        },
        {
          "internalType": "address",
          "name": "voterAdress",
          "type": "address"
        },
        {
          "internalType": "string",
          "name": "voter",
          "type": "string"
        }
      ],
      "name": "addAddUserToElection",
      "outputs": [
        {
          "components": [
            {
              "internalType": "address",
              "name": "KeyValue",
              "type": "address"
            },
            {
              "internalType": "uint256",
              "name": "ElectionId",
              "type": "uint256"
            },
            {
              "internalType": "string",
              "name": "Voter",
              "type": "string"
            },
            {
              "internalType": "address",
              "name": "VoterAddress",
              "type": "address"
            },
            {
              "internalType": "bool",
              "name": "ValidKey",
              "type": "bool"
            }
          ],
          "internalType": "struct VotingSystem.key[]",
          "name": "newKeys",
          "type": "tuple[]"
        }
      ],
      "payable": true,
      "stateMutability": "payable",
      "type": "function"
    },
    {
      "constant": false,
      "inputs": [
        {
          "internalType": "string",
          "name": "voter",
          "type": "string"
        },
        {
          "internalType": "address",
          "name": "keyAdr",
          "type": "address"
        },
        {
          "internalType": "uint64",
          "name": "candidateId",
          "type": "uint64"
        }
      ],
      "name": "addVote",
      "outputs": [],
      "payable": false,
      "stateMutability": "nonpayable",
      "type": "function"
    },
    {
      "constant": true,
      "inputs": [
        {
          "internalType": "string",
          "name": "voter",
          "type": "string"
        },
        {
          "internalType": "address",
          "name": "keyAdr",
          "type": "address"
        }
      ],
      "name": "checkVote",
      "outputs": [
        {
          "internalType": "bool",
          "name": "voted",
          "type": "bool"
        }
      ],
      "payable": false,
      "stateMutability": "view",
      "type": "function"
    },
    {
      "constant": true,
      "inputs": [
        {
          "internalType": "string",
          "name": "voter",
          "type": "string"
        },
        {
          "internalType": "address",
          "name": "keyAdr",
          "type": "address"
        }
      ],
      "name": "startVote",
      "outputs": [
        {
          "components": [
            {
              "internalType": "uint256",
              "name": "ElectionId",
              "type": "uint256"
            },
            {
              "internalType": "string",
              "name": "Title",
              "type": "string"
            },
            {
              "internalType": "uint64",
              "name": "DateFrom",
              "type": "uint64"
            },
            {
              "internalType": "uint64",
              "name": "DateTo",
              "type": "uint64"
            },
            {
              "internalType": "uint8",
              "name": "KeysPerVoter",
              "type": "uint8"
            },
            {
              "internalType": "string[]",
              "name": "Candidates",
              "type": "string[]"
            }
          ],
          "internalType": "struct VotingSystem.election",
          "name": "el",
          "type": "tuple"
        }
      ],
      "payable": false,
      "stateMutability": "view",
      "type": "function"
    },
    {
      "constant": false,
      "inputs": [
        {
          "internalType": "address[]",
          "name": "newAdmins",
          "type": "address[]"
        }
      ],
      "name": "addAdminBatch",
      "outputs": [],
      "payable": false,
      "stateMutability": "nonpayable",
      "type": "function"
    },
    {
      "constant": false,
      "inputs": [
        {
          "internalType": "address",
          "name": "newAdmin",
          "type": "address"
        }
      ],
      "name": "addAdmin",
      "outputs": [],
      "payable": false,
      "stateMutability": "nonpayable",
      "type": "function"
    }
  ],
  "bytecode": "0x60806040526000600560006101000a81548160ff02191690831515021790555034801561002b57600080fd5b506143c18061003b6000396000f3fe6080604052600436106100915760003560e01c8063987641cb11610059578063987641cb146101965780639916cc35146101d35780639f3a7f52146101fc578063aba4757914610227578063b93a89f71461025057610091565b80635e6fef01146100965780636fcf362e146100d75780637048027514610100578063834e90cf146101295780638de34e9514610159575b600080fd5b3480156100a257600080fd5b506100bd60048036036100b89190810190613339565b61028d565b6040516100ce959493929190613faf565b60405180910390f35b3480156100e357600080fd5b506100fe60048036036100f99190810190613292565b61039d565b005b34801561010c57600080fd5b506101276004803603610122919081019061316d565b61064c565b005b610143600480360361013e9190810190613362565b61074c565b6040516101509190613dce565b60405180910390f35b34801561016557600080fd5b50610180600480360361017b91908101906131d7565b610da3565b60405161018d9190613f8d565b60405180910390f35b3480156101a257600080fd5b506101bd60048036036101b891908101906131d7565b61187f565b6040516101ca9190613df0565b60405180910390f35b3480156101df57600080fd5b506101fa60048036036101f5919081019061322b565b611b61565b005b34801561020857600080fd5b50610211612036565b60405161021e9190613dac565b60405180910390f35b34801561023357600080fd5b5061024e60048036036102499190810190613196565b612337565b005b34801561025c57600080fd5b5061027760048036036102729190810190613339565b612522565b6040516102849190613f6b565b60405180910390f35b6006818154811061029a57fe5b9060005260206000209060040201600091509050806000015490806001018054600181600116156101000203166002900480601f01602080910402602001604051908101604052809291908181526020018280546001816001161561010002031660029004801561034c5780601f106103215761010080835404028352916020019161034c565b820191906000526020600020905b81548152906001019060200180831161032f57829003601f168201915b5050505050908060020160009054906101000a900467ffffffffffffffff16908060020160089054906101000a900467ffffffffffffffff16908060020160109054906101000a900460ff16905085565b8060008090505b815181101561044f5760008090505b825181101561044157808214610434576103f38383815181106103d257fe5b60200260200101518483815181106103e657fe5b6020026020010151612bb0565b15610433576040517f08c379a000000000000000000000000000000000000000000000000000000000815260040161042a90613f4b565b60405180910390fd5b5b80806001019150506103b3565b5080806001019150506103a4565b50600460003373ffffffffffffffffffffffffffffffffffffffff1673ffffffffffffffffffffffffffffffffffffffff16815260200190815260200160002060009054906101000a900460ff166104dc576040517f08c379a00000000000000000000000000000000000000000000000000000000081526004016104d390613eab565b60405180910390fd5b600042336040516020016104f1929190613d54565b6040516020818303038152906040528051906020012060001c905060066040518060c001604052808381526020018981526020018867ffffffffffffffff1681526020018767ffffffffffffffff1681526020018660ff16815260200185815250908060018154018082558091505090600182039060005260206000209060040201600090919290919091506000820151816000015560208201518160010190805190602001906105a3929190612c09565b5060408201518160020160006101000a81548167ffffffffffffffff021916908367ffffffffffffffff16021790555060608201518160020160086101000a81548167ffffffffffffffff021916908367ffffffffffffffff16021790555060808201518160020160106101000a81548160ff021916908360ff16021790555060a082015181600301908051906020019061063f929190612c89565b5050505050505050505050565b600460003373ffffffffffffffffffffffffffffffffffffffff1673ffffffffffffffffffffffffffffffffffffffff16815260200190815260200160002060009054906101000a900460ff166106d8576040517f08c379a00000000000000000000000000000000000000000000000000000000081526004016106cf90613eab565b60405180910390fd5b600560009054906101000a900460ff166106f157600080fd5b6001600460008373ffffffffffffffffffffffffffffffffffffffff1673ffffffffffffffffffffffffffffffffffffffff16815260200190815260200160002060006101000a81548160ff02191690831515021790555050565b6060600460003373ffffffffffffffffffffffffffffffffffffffff1673ffffffffffffffffffffffffffffffffffffffff16815260200190815260200160002060009054906101000a900460ff166107da576040517f08c379a00000000000000000000000000000000000000000000000000000000081526004016107d190613eab565b60405180910390fd5b60001515600260008573ffffffffffffffffffffffffffffffffffffffff1673ffffffffffffffffffffffffffffffffffffffff168152602001908152602001600020600086815260200190815260200160002060009054906101000a900460ff1615151461087e576040517f08c379a000000000000000000000000000000000000000000000000000000000815260040161087590613f2b565b60405180910390fd5b60008090505b600680549050811015610cfb57846006828154811061089f57fe5b9060005260206000209060040201600001541415610cee5742600682815481106108c557fe5b906000526020600020906004020160020160009054906101000a900467ffffffffffffffff1667ffffffffffffffff16116108ff57600080fd5b60008060008673ffffffffffffffffffffffffffffffffffffffff1673ffffffffffffffffffffffffffffffffffffffff16815260200190815260200160002080546001816001161561010002031660029004905014156109ae57826000808673ffffffffffffffffffffffffffffffffffffffff1673ffffffffffffffffffffffffffffffffffffffff16815260200190815260200160002090805190602001906109ac929190612ce9565b505b610a8e6000808673ffffffffffffffffffffffffffffffffffffffff1673ffffffffffffffffffffffffffffffffffffffff1681526020019081526020016000208054600181600116156101000203166002900480601f016020809104026020016040519081016040528092919081815260200182805460018160011615610100020316600290048015610a835780601f10610a5857610100808354040283529160200191610a83565b820191906000526020600020905b815481529060010190602001808311610a6657829003601f168201915b505050505084612bb0565b610a9757600080fd5b600060068281548110610aa657fe5b906000526020600020906004020160020160109054906101000a900460ff1660ff16905080604051908082528060200260200182016040528015610b0457816020015b610af1612d69565b815260200190600190039081610ae95790505b50925060008090505b81811015610ce75760008142014340604051602001610b2d929190613d80565b6040516020818303038152906040528051906020012060001c9050610b50612dc6565b6040518060a001604052808373ffffffffffffffffffffffffffffffffffffffff1681526020018a81526020018881526020018973ffffffffffffffffffffffffffffffffffffffff16815260200160011515815250905080600160008473ffffffffffffffffffffffffffffffffffffffff1673ffffffffffffffffffffffffffffffffffffffff16815260200190815260200160002060008201518160000160006101000a81548173ffffffffffffffffffffffffffffffffffffffff021916908373ffffffffffffffffffffffffffffffffffffffff160217905550602082015181600101556040820151816002019080519060200190610c55929190612c09565b5060608201518160030160006101000a81548173ffffffffffffffffffffffffffffffffffffffff021916908373ffffffffffffffffffffffffffffffffffffffff16021790555060808201518160030160146101000a81548160ff02191690831515021790555090505080868481518110610ccd57fe5b602002602001018190525050508080600101915050610b0d565b5050610cfb565b8080600101915050610884565b506001600260008573ffffffffffffffffffffffffffffffffffffffff1673ffffffffffffffffffffffffffffffffffffffff168152602001908152602001600020600086815260200190815260200160002060006101000a81548160ff0219169083151502179055507fb6db8bc678559103f3606a91c7397a96696ac489c86b9726831e695b8484291d81604051610d949190613dce565b60405180910390a19392505050565b610dab612e23565b81610db4612dc6565b600160008373ffffffffffffffffffffffffffffffffffffffff1673ffffffffffffffffffffffffffffffffffffffff1681526020019081526020016000206040518060a00160405290816000820160009054906101000a900473ffffffffffffffffffffffffffffffffffffffff1673ffffffffffffffffffffffffffffffffffffffff1673ffffffffffffffffffffffffffffffffffffffff16815260200160018201548152602001600282018054600181600116156101000203166002900480601f016020809104026020016040519081016040528092919081815260200182805460018160011615610100020316600290048015610ef75780601f10610ecc57610100808354040283529160200191610ef7565b820191906000526020600020905b815481529060010190602001808311610eda57829003601f168201915b505050505081526020016003820160009054906101000a900473ffffffffffffffffffffffffffffffffffffffff1673ffffffffffffffffffffffffffffffffffffffff1673ffffffffffffffffffffffffffffffffffffffff1681526020016003820160149054906101000a900460ff1615151515815250509050610f7b612e23565b60008090505b60068054905081101561120857826020015160068281548110610fa057fe5b90600052602060002090600402016000015414156111fb5760068181548110610fc557fe5b90600052602060002090600402016040518060c001604052908160008201548152602001600182018054600181600116156101000203166002900480601f0160208091040260200160405190810160405280929190818152602001828054600181600116156101000203166002900480156110815780601f1061105657610100808354040283529160200191611081565b820191906000526020600020905b81548152906001019060200180831161106457829003601f168201915b505050505081526020016002820160009054906101000a900467ffffffffffffffff1667ffffffffffffffff1667ffffffffffffffff1681526020016002820160089054906101000a900467ffffffffffffffff1667ffffffffffffffff1667ffffffffffffffff1681526020016002820160109054906101000a900460ff1660ff1660ff16815260200160038201805480602002602001604051908101604052809291908181526020016000905b828210156111ec578382906000526020600020018054600181600116156101000203166002900480601f0160208091040260200160405190810160405280929190818152602001828054600181600116156101000203166002900480156111d85780601f106111ad576101008083540402835291602001916111d8565b820191906000526020600020905b8154815290600101906020018083116111bb57829003601f168201915b505050505081526020019060010190611130565b50505050815250509150611208565b8080600101915050610f81565b5042816040015167ffffffffffffffff161180611232575042816060015167ffffffffffffffff16105b15611272576040517f08c379a000000000000000000000000000000000000000000000000000000000815260040161126990613e4b565b60405180910390fd5b600160008673ffffffffffffffffffffffffffffffffffffffff1673ffffffffffffffffffffffffffffffffffffffff16815260200190815260200160002060030160149054906101000a900460ff16611301576040517f08c379a00000000000000000000000000000000000000000000000000000000081526004016112f890613f0b565b60405180910390fd5b6113e16000803373ffffffffffffffffffffffffffffffffffffffff1673ffffffffffffffffffffffffffffffffffffffff1681526020019081526020016000208054600181600116156101000203166002900480601f0160208091040260200160405190810160405280929190818152602001828054600181600116156101000203166002900480156113d65780601f106113ab576101008083540402835291602001916113d6565b820191906000526020600020905b8154815290600101906020018083116113b957829003601f168201915b505050505087612bb0565b611420576040517f08c379a000000000000000000000000000000000000000000000000000000000815260040161141790613e6b565b60405180910390fd5b611428612dc6565b600160008773ffffffffffffffffffffffffffffffffffffffff1673ffffffffffffffffffffffffffffffffffffffff1681526020019081526020016000206040518060a00160405290816000820160009054906101000a900473ffffffffffffffffffffffffffffffffffffffff1673ffffffffffffffffffffffffffffffffffffffff1673ffffffffffffffffffffffffffffffffffffffff16815260200160018201548152602001600282018054600181600116156101000203166002900480601f01602080910402602001604051908101604052809291908181526020018280546001816001161561010002031660029004801561156b5780601f106115405761010080835404028352916020019161156b565b820191906000526020600020905b81548152906001019060200180831161154e57829003601f168201915b505050505081526020016003820160009054906101000a900473ffffffffffffffffffffffffffffffffffffffff1673ffffffffffffffffffffffffffffffffffffffff1673ffffffffffffffffffffffffffffffffffffffff1681526020016003820160149054906101000a900460ff161515151581525050905060008090505b6006805490508110156118745781602001516006828154811061160c57fe5b9060005260206000209060040201600001541415611867576006818154811061163157fe5b90600052602060002090600402016040518060c001604052908160008201548152602001600182018054600181600116156101000203166002900480601f0160208091040260200160405190810160405280929190818152602001828054600181600116156101000203166002900480156116ed5780601f106116c2576101008083540402835291602001916116ed565b820191906000526020600020905b8154815290600101906020018083116116d057829003601f168201915b505050505081526020016002820160009054906101000a900467ffffffffffffffff1667ffffffffffffffff1667ffffffffffffffff1681526020016002820160089054906101000a900467ffffffffffffffff1667ffffffffffffffff1667ffffffffffffffff1681526020016002820160109054906101000a900460ff1660ff1660ff16815260200160038201805480602002602001604051908101604052809291908181526020016000905b82821015611858578382906000526020600020018054600181600116156101000203166002900480601f0160208091040260200160405190810160405280929190818152602001828054600181600116156101000203166002900480156118445780601f1061181957610100808354040283529160200191611844565b820191906000526020600020905b81548152906001019060200180831161182757829003601f168201915b50505050508152602001906001019061179c565b50505050815250509550611874565b80806001019150506115ed565b505050505092915050565b6000806000803373ffffffffffffffffffffffffffffffffffffffff1673ffffffffffffffffffffffffffffffffffffffff16815260200190815260200160002080546001816001161561010002031660029004905011611915576040517f08c379a000000000000000000000000000000000000000000000000000000000815260040161190c90613e8b565b60405180910390fd5b6119f56000803373ffffffffffffffffffffffffffffffffffffffff1673ffffffffffffffffffffffffffffffffffffffff1681526020019081526020016000208054600181600116156101000203166002900480601f0160208091040260200160405190810160405280929190818152602001828054600181600116156101000203166002900480156119ea5780601f106119bf576101008083540402835291602001916119ea565b820191906000526020600020905b8154815290600101906020018083116119cd57829003601f168201915b505050505084612bb0565b611a34576040517f08c379a0000000000000000000000000000000000000000000000000000000008152600401611a2b90613e6b565b60405180910390fd5b60009050600060036000600160008673ffffffffffffffffffffffffffffffffffffffff1673ffffffffffffffffffffffffffffffffffffffff168152602001908152602001600020600101548152602001908152602001600020905060008090505b8180549050811015611b59573373ffffffffffffffffffffffffffffffffffffffff16828281548110611ac657fe5b906000526020600020906002020160010160089054906101000a900473ffffffffffffffffffffffffffffffffffffffff1673ffffffffffffffffffffffffffffffffffffffff16148015611b425750818181548110611b2257fe5b9060005260206000209060020201600101601c9054906101000a900460ff165b15611b4c57600192505b8080600101915050611a97565b505092915050565b600160008373ffffffffffffffffffffffffffffffffffffffff1673ffffffffffffffffffffffffffffffffffffffff16815260200190815260200160002060030160149054906101000a900460ff16611bf0576040517f08c379a0000000000000000000000000000000000000000000000000000000008152600401611be790613f0b565b60405180910390fd5b611cd06000803373ffffffffffffffffffffffffffffffffffffffff1673ffffffffffffffffffffffffffffffffffffffff1681526020019081526020016000208054600181600116156101000203166002900480601f016020809104026020016040519081016040528092919081815260200182805460018160011615610100020316600290048015611cc55780601f10611c9a57610100808354040283529160200191611cc5565b820191906000526020600020905b815481529060010190602001808311611ca857829003601f168201915b505050505084612bb0565b611d0f576040517f08c379a0000000000000000000000000000000000000000000000000000000008152600401611d0690613e6b565b60405180910390fd5b600060036000600160008673ffffffffffffffffffffffffffffffffffffffff1673ffffffffffffffffffffffffffffffffffffffff168152602001908152602001600020600101548152602001908152602001600020905060008090505b8180549050811015611e2f573373ffffffffffffffffffffffffffffffffffffffff16828281548110611d9d57fe5b906000526020600020906002020160010160089054906101000a900473ffffffffffffffffffffffffffffffffffffffff1673ffffffffffffffffffffffffffffffffffffffff161415611e22576000828281548110611df957fe5b9060005260206000209060020201600101601c6101000a81548160ff0219169083151502179055505b8080600101915050611d6e565b50806040518060a001604052808573ffffffffffffffffffffffffffffffffffffffff1681526020018467ffffffffffffffff1681526020014267ffffffffffffffff1681526020013373ffffffffffffffffffffffffffffffffffffffff168152602001600115158152509080600181540180825580915050906001820390600052602060002090600202016000909192909190915060008201518160000160006101000a81548173ffffffffffffffffffffffffffffffffffffffff021916908373ffffffffffffffffffffffffffffffffffffffff16021790555060208201518160000160146101000a81548167ffffffffffffffff021916908367ffffffffffffffff16021790555060408201518160010160006101000a81548167ffffffffffffffff021916908367ffffffffffffffff16021790555060608201518160010160086101000a81548173ffffffffffffffffffffffffffffffffffffffff021916908373ffffffffffffffffffffffffffffffffffffffff160217905550608082015181600101601c6101000a81548160ff0219169083151502179055505050506000600160008573ffffffffffffffffffffffffffffffffffffffff1673ffffffffffffffffffffffffffffffffffffffff16815260200190815260200160002060030160146101000a81548160ff02191690831515021790555050505050565b6060600460003373ffffffffffffffffffffffffffffffffffffffff1673ffffffffffffffffffffffffffffffffffffffff16815260200190815260200160002060009054906101000a900460ff166120c4576040517f08c379a00000000000000000000000000000000000000000000000000000000081526004016120bb90613eab565b60405180910390fd5b6006805480602002602001604051908101604052809291908181526020016000905b8282101561232e57838290600052602060002090600402016040518060c001604052908160008201548152602001600182018054600181600116156101000203166002900480601f0160208091040260200160405190810160405280929190818152602001828054600181600116156101000203166002900480156121ac5780601f10612181576101008083540402835291602001916121ac565b820191906000526020600020905b81548152906001019060200180831161218f57829003601f168201915b505050505081526020016002820160009054906101000a900467ffffffffffffffff1667ffffffffffffffff1667ffffffffffffffff1681526020016002820160089054906101000a900467ffffffffffffffff1667ffffffffffffffff1667ffffffffffffffff1681526020016002820160109054906101000a900460ff1660ff1660ff16815260200160038201805480602002602001604051908101604052809291908181526020016000905b82821015612317578382906000526020600020018054600181600116156101000203166002900480601f0160208091040260200160405190810160405280929190818152602001828054600181600116156101000203166002900480156123035780601f106122d857610100808354040283529160200191612303565b820191906000526020600020905b8154815290600101906020018083116122e657829003601f168201915b50505050508152602001906001019061225b565b5050505081525050815260200190600101906120e6565b50505050905090565b80600080905060008090505b82518110156123a55782818151811061235857fe5b602002602001015173ffffffffffffffffffffffffffffffffffffffff163373ffffffffffffffffffffffffffffffffffffffff16141561239857600191505b8080600101915050612343565b50806123e6576040517f08c379a00000000000000000000000000000000000000000000000000000000081526004016123dd90613e0b565b60405180910390fd5b600560009054906101000a900460ff1615612436576040517f08c379a000000000000000000000000000000000000000000000000000000000815260040161242d90613eeb565b60405180910390fd5b600083511161247a576040517f08c379a000000000000000000000000000000000000000000000000000000000815260040161247190613e2b565b60405180910390fd5b60008090505b83518110156125015760016004600086848151811061249b57fe5b602002602001015173ffffffffffffffffffffffffffffffffffffffff1673ffffffffffffffffffffffffffffffffffffffff16815260200190815260200160002060006101000a81548160ff0219169083151502179055508080600101915050612480565b506001600560006101000a81548160ff021916908315150217905550505050565b61252a612e70565b600460003373ffffffffffffffffffffffffffffffffffffffff1673ffffffffffffffffffffffffffffffffffffffff16815260200190815260200160002060009054906101000a900460ff166125b6576040517f08c379a00000000000000000000000000000000000000000000000000000000081526004016125ad90613eab565b60405180910390fd5b60008090505b600680549050811015612b6f5782600682815481106125d757fe5b9060005260206000209060040201600001541415612b62576125f7612e23565b6006828154811061260457fe5b90600052602060002090600402016040518060c001604052908160008201548152602001600182018054600181600116156101000203166002900480601f0160208091040260200160405190810160405280929190818152602001828054600181600116156101000203166002900480156126c05780601f10612695576101008083540402835291602001916126c0565b820191906000526020600020905b8154815290600101906020018083116126a357829003601f168201915b505050505081526020016002820160009054906101000a900467ffffffffffffffff1667ffffffffffffffff1667ffffffffffffffff1681526020016002820160089054906101000a900467ffffffffffffffff1667ffffffffffffffff1667ffffffffffffffff1681526020016002820160109054906101000a900460ff1660ff1660ff16815260200160038201805480602002602001604051908101604052809291908181526020016000905b8282101561282b578382906000526020600020018054600181600116156101000203166002900480601f0160208091040260200160405190810160405280929190818152602001828054600181600116156101000203166002900480156128175780601f106127ec57610100808354040283529160200191612817565b820191906000526020600020905b8154815290600101906020018083116127fa57829003601f168201915b50505050508152602001906001019061276f565b5050505081525050905060608160a001515160405190808252806020026020018201604052801561287657816020015b612863612ebd565b81526020019060019003908161285b5790505b50905060008090505b8260a00151518110156128cc578260a00151818151811061289c57fe5b60200260200101518282815181106128b057fe5b602002602001015160000181905250808060010191505061287f565b5060606003600084600001518152602001908152602001600020805480602002602001604051908101604052809291908181526020016000905b82821015612a6357838290600052602060002090600202016040518060a00160405290816000820160009054906101000a900473ffffffffffffffffffffffffffffffffffffffff1673ffffffffffffffffffffffffffffffffffffffff1673ffffffffffffffffffffffffffffffffffffffff1681526020016000820160149054906101000a900467ffffffffffffffff1667ffffffffffffffff1667ffffffffffffffff1681526020016001820160009054906101000a900467ffffffffffffffff1667ffffffffffffffff1667ffffffffffffffff1681526020016001820160089054906101000a900473ffffffffffffffffffffffffffffffffffffffff1673ffffffffffffffffffffffffffffffffffffffff1673ffffffffffffffffffffffffffffffffffffffff16815260200160018201601c9054906101000a900460ff16151515158152505081526020019060010190612906565b50505050905060008090505b8151811015612afe57818181518110612a8457fe5b60200260200101516080015115612af157600183838381518110612aa457fe5b60200260200101516020015167ffffffffffffffff1681518110612ac457fe5b60200260200101516020018181510191509067ffffffffffffffff16908167ffffffffffffffff16815250505b8080600101915050612a6f565b506040518060c001604052808460000151815260200184602001518152602001846040015167ffffffffffffffff168152602001846060015167ffffffffffffffff168152602001846080015160ff16815260200183815250945050505050612bab565b80806001019150506125bc565b506040517f08c379a0000000000000000000000000000000000000000000000000000000008152600401612ba290613ecb565b60405180910390fd5b919050565b600081604051602001612bc39190613d3d565b6040516020818303038152906040528051906020012083604051602001612bea9190613d3d565b6040516020818303038152906040528051906020012014905092915050565b828054600181600116156101000203166002900490600052602060002090601f016020900481019282601f10612c4a57805160ff1916838001178555612c78565b82800160010185558215612c78579182015b82811115612c77578251825591602001919060010190612c5c565b5b509050612c859190612ee1565b5090565b828054828255906000526020600020908101928215612cd8579160200282015b82811115612cd7578251829080519060200190612cc7929190612c09565b5091602001919060010190612ca9565b5b509050612ce59190612f06565b5090565b828054600181600116156101000203166002900490600052602060002090601f016020900481019282601f10612d2a57805160ff1916838001178555612d58565b82800160010185558215612d58579182015b82811115612d57578251825591602001919060010190612d3c565b5b509050612d659190612ee1565b5090565b6040518060a00160405280600073ffffffffffffffffffffffffffffffffffffffff1681526020016000815260200160608152602001600073ffffffffffffffffffffffffffffffffffffffff1681526020016000151581525090565b6040518060a00160405280600073ffffffffffffffffffffffffffffffffffffffff1681526020016000815260200160608152602001600073ffffffffffffffffffffffffffffffffffffffff1681526020016000151581525090565b6040518060c001604052806000815260200160608152602001600067ffffffffffffffff168152602001600067ffffffffffffffff168152602001600060ff168152602001606081525090565b6040518060c001604052806000815260200160608152602001600067ffffffffffffffff168152602001600067ffffffffffffffff168152602001600060ff168152602001606081525090565b604051806040016040528060608152602001600067ffffffffffffffff1681525090565b612f0391905b80821115612eff576000816000905550600101612ee7565b5090565b90565b612f2f91905b80821115612f2b5760008181612f229190612f32565b50600101612f0c565b5090565b90565b50805460018160011615610100020316600290046000825580601f10612f585750612f77565b601f016020900490600052602060002090810190612f769190612ee1565b5b50565b600081359050612f8981614322565b92915050565b600082601f830112612fa057600080fd5b8135612fb3612fae82614036565b614009565b91508181835260208401935060208101905083856020840282011115612fd857600080fd5b60005b838110156130085781612fee8882612f7a565b845260208401935060208301925050600181019050612fdb565b5050505092915050565b600082601f83011261302357600080fd5b81356130366130318261405e565b614009565b9150818183526020840193506020810190508360005b8381101561307c57813586016130628882613086565b84526020840193506020830192505060018101905061304c565b5050505092915050565b600082601f83011261309757600080fd5b81356130aa6130a582614086565b614009565b915080825260208301602083018583830111156130c657600080fd5b6130d183828461428a565b50505092915050565b600082601f8301126130eb57600080fd5b81356130fe6130f9826140b2565b614009565b9150808252602083016020830185838301111561311a57600080fd5b61312583828461428a565b50505092915050565b60008135905061313d81614339565b92915050565b60008135905061315281614350565b92915050565b60008135905061316781614367565b92915050565b60006020828403121561317f57600080fd5b600061318d84828501612f7a565b91505092915050565b6000602082840312156131a857600080fd5b600082013567ffffffffffffffff8111156131c257600080fd5b6131ce84828501612f8f565b91505092915050565b600080604083850312156131ea57600080fd5b600083013567ffffffffffffffff81111561320457600080fd5b613210858286016130da565b925050602061322185828601612f7a565b9150509250929050565b60008060006060848603121561324057600080fd5b600084013567ffffffffffffffff81111561325a57600080fd5b613266868287016130da565b935050602061327786828701612f7a565b925050604061328886828701613143565b9150509250925092565b600080600080600060a086880312156132aa57600080fd5b600086013567ffffffffffffffff8111156132c457600080fd5b6132d0888289016130da565b95505060206132e188828901613143565b94505060406132f288828901613143565b935050606061330388828901613158565b925050608086013567ffffffffffffffff81111561332057600080fd5b61332c88828901613012565b9150509295509295909350565b60006020828403121561334b57600080fd5b60006133598482850161312e565b91505092915050565b60008060006060848603121561337757600080fd5b60006133858682870161312e565b935050602061339686828701612f7a565b925050604084013567ffffffffffffffff8111156133b357600080fd5b6133bf868287016130da565b9150509250925092565b60006133d58383613679565b905092915050565b60006133e98383613b89565b905092915050565b60006133fd8383613c19565b905092915050565b60006134118383613c8f565b905092915050565b61342a61342582614217565b6142cc565b82525050565b61343981614205565b82525050565b600061344a8261411e565b6134548185614194565b935083602082028501613466856140de565b8060005b858110156134a2578484038952815161348385826133c9565b945061348e83614160565b925060208a0199505060018101905061346a565b50829750879550505050505092915050565b60006134bf82614129565b6134c981856141a5565b9350836020820285016134db856140ee565b8060005b8581101561351757848403895281516134f885826133dd565b94506135038361416d565b925060208a019950506001810190506134df565b50829750879550505050505092915050565b600061353482614134565b61353e81856141b6565b935083602082028501613550856140fe565b8060005b8581101561358c578484038952815161356d85826133f1565b94506135788361417a565b925060208a01995050600181019050613554565b50829750879550505050505092915050565b60006135a98261413f565b6135b381856141c7565b9350836020820285016135c58561410e565b8060005b8581101561360157848403895281516135e28582613405565b94506135ed83614187565b925060208a019950506001810190506135c9565b50829750879550505050505092915050565b61361c81614229565b82525050565b61362b81614229565b82525050565b61364261363d82614235565b6142de565b82525050565b600061365382614155565b61365d81856141fa565b935061366d818560208601614299565b80840191505092915050565b60006136848261414a565b61368e81856141d8565b935061369e818560208601614299565b6136a781614304565b840191505092915050565b60006136bd8261414a565b6136c781856141e9565b93506136d7818560208601614299565b6136e081614304565b840191505092915050565b60006136f86023836141e9565b91507f53656e6465722068617320746f206265206f6e65206f66207468652061646d6960008301527f6e732e00000000000000000000000000000000000000000000000000000000006020830152604082019050919050565b600061375e600d836141e9565b91507f4c69737420697320656d707479000000000000000000000000000000000000006000830152602082019050919050565b600061379e6028836141e9565b91507f566f74696e67206f6e6c7920616c6c6f77656420647572696e6720746865206560008301527f6c656374696f6e2e0000000000000000000000000000000000000000000000006020830152604082019050919050565b6000613804601d836141e9565b91507f53656e64657220616e6420766f74657220646f6e2774206d617463682e0000006000830152602082019050919050565b60006138446014836141e9565b91507f566f74657220646f65736e27742065786973742e0000000000000000000000006000830152602082019050919050565b6000613884600e836141e9565b91507f4e6f207065726d697373696f6e2e0000000000000000000000000000000000006000830152602082019050919050565b60006138c46013836141e9565b91507f456c656374696f6e206e6f7420666f756e642e000000000000000000000000006000830152602082019050919050565b60006139046041836141e9565b91507f41646d696e206261746368206973206f6e6c792061766169626c65206f6e636560008301527f207768696c65207468657265206973206e6f2061646d696e6973747261746f7260208301527f2e000000000000000000000000000000000000000000000000000000000000006040830152606082019050919050565b6000613990600e836141e9565b91507f4b6579206e6f742076616c69642e0000000000000000000000000000000000006000830152602082019050919050565b60006139d06027836141e9565b91507f4b65797320666f72207468697320757365722068617665206265656e2067656e60008301527f6572617465642e000000000000000000000000000000000000000000000000006020830152604082019050919050565b6000613a366017836141e9565b91507f43616e646964617465206973206e6f7420756e697175650000000000000000006000830152602082019050919050565b600060c083016000830151613a816000860182613ccc565b5060208301518482036020860152613a998282613679565b9150506040830151613aae6040860182613d01565b506060830151613ac16060860182613d01565b506080830151613ad46080860182613d1f565b5060a083015184820360a0860152613aec828261359e565b9150508091505092915050565b600060c083016000830151613b116000860182613ccc565b5060208301518482036020860152613b298282613679565b9150506040830151613b3e6040860182613d01565b506060830151613b516060860182613d01565b506080830151613b646080860182613d1f565b5060a083015184820360a0860152613b7c828261343f565b9150508091505092915050565b600060c083016000830151613ba16000860182613ccc565b5060208301518482036020860152613bb98282613679565b9150506040830151613bce6040860182613d01565b506060830151613be16060860182613d01565b506080830151613bf46080860182613d1f565b5060a083015184820360a0860152613c0c828261343f565b9150508091505092915050565b600060a083016000830151613c316000860182613430565b506020830151613c446020860182613ccc565b5060408301518482036040860152613c5c8282613679565b9150506060830151613c716060860182613430565b506080830151613c846080860182613613565b508091505092915050565b60006040830160008301518482036000860152613cac8282613679565b9150506020830151613cc16020860182613d01565b508091505092915050565b613cd58161425f565b82525050565b613ce48161425f565b82525050565b613cfb613cf68261425f565b6142fa565b82525050565b613d0a81614269565b82525050565b613d1981614269565b82525050565b613d288161427d565b82525050565b613d378161427d565b82525050565b6000613d498284613648565b915081905092915050565b6000613d608285613cea565b602082019150613d708284613419565b6014820191508190509392505050565b6000613d8c8285613cea565b602082019150613d9c8284613631565b6020820191508190509392505050565b60006020820190508181036000830152613dc681846134b4565b905092915050565b60006020820190508181036000830152613de88184613529565b905092915050565b6000602082019050613e056000830184613622565b92915050565b60006020820190508181036000830152613e24816136eb565b9050919050565b60006020820190508181036000830152613e4481613751565b9050919050565b60006020820190508181036000830152613e6481613791565b9050919050565b60006020820190508181036000830152613e84816137f7565b9050919050565b60006020820190508181036000830152613ea481613837565b9050919050565b60006020820190508181036000830152613ec481613877565b9050919050565b60006020820190508181036000830152613ee4816138b7565b9050919050565b60006020820190508181036000830152613f04816138f7565b9050919050565b60006020820190508181036000830152613f2481613983565b9050919050565b60006020820190508181036000830152613f44816139c3565b9050919050565b60006020820190508181036000830152613f6481613a29565b9050919050565b60006020820190508181036000830152613f858184613a69565b905092915050565b60006020820190508181036000830152613fa78184613af9565b905092915050565b600060a082019050613fc46000830188613cdb565b8181036020830152613fd681876136b2565b9050613fe56040830186613d10565b613ff26060830185613d10565b613fff6080830184613d2e565b9695505050505050565b6000604051905081810181811067ffffffffffffffff8211171561402c57600080fd5b8060405250919050565b600067ffffffffffffffff82111561404d57600080fd5b602082029050602081019050919050565b600067ffffffffffffffff82111561407557600080fd5b602082029050602081019050919050565b600067ffffffffffffffff82111561409d57600080fd5b601f19601f8301169050602081019050919050565b600067ffffffffffffffff8211156140c957600080fd5b601f19601f8301169050602081019050919050565b6000819050602082019050919050565b6000819050602082019050919050565b6000819050602082019050919050565b6000819050602082019050919050565b600081519050919050565b600081519050919050565b600081519050919050565b600081519050919050565b600081519050919050565b600081519050919050565b6000602082019050919050565b6000602082019050919050565b6000602082019050919050565b6000602082019050919050565b600082825260208201905092915050565b600082825260208201905092915050565b600082825260208201905092915050565b600082825260208201905092915050565b600082825260208201905092915050565b600082825260208201905092915050565b600081905092915050565b60006142108261423f565b9050919050565b60006142228261423f565b9050919050565b60008115159050919050565b6000819050919050565b600073ffffffffffffffffffffffffffffffffffffffff82169050919050565b6000819050919050565b600067ffffffffffffffff82169050919050565b600060ff82169050919050565b82818337600083830152505050565b60005b838110156142b757808201518184015260208101905061429c565b838111156142c6576000848401525b50505050565b60006142d7826142e8565b9050919050565b6000819050919050565b60006142f382614315565b9050919050565b6000819050919050565b6000601f19601f8301169050919050565b60008160601b9050919050565b61432b81614205565b811461433657600080fd5b50565b6143428161425f565b811461434d57600080fd5b50565b61435981614269565b811461436457600080fd5b50565b6143708161427d565b811461437b57600080fd5b5056fea365627a7a72315820966804d6ae62953f367ea190c469ffe805cd5d6e5e772d1e12a24a2d1dc45cef6c6578706572696d656e74616cf564736f6c63430005100040",
  "source": "// SPDX-License-Identifier: MIT\r\npragma solidity >=0.4.22 <0.9.0;\r\npragma experimental ABIEncoderV2;\r\n\r\ncontract VotingSystem {\r\n    \r\n    struct election {\r\n        uint ElectionId;\r\n        string Title;\r\n        uint64 DateFrom;\r\n        uint64 DateTo;\r\n        uint8 KeysPerVoter;\r\n        string[] Candidates;\r\n    }\r\n\r\n    struct electionDetails {\r\n        uint ElectionId;\r\n        string Title;\r\n        uint64 DateFrom;\r\n        uint64 DateTo;\r\n        uint8 KeysPerVoter;\r\n        result[] Results;\r\n    }\r\n\r\n    struct key {\r\n        address KeyValue;\r\n        uint ElectionId;\r\n        string Voter;\r\n        address VoterAddress;\r\n        bool ValidKey;\r\n    }\r\n\r\n    struct vote {\r\n        address KeyValue;\r\n        uint64 CandidateId;\r\n        uint64 VotedDate;\r\n        address VoterAddress;\r\n        bool Latest;\r\n    }\r\n\r\n    struct result {\r\n        string Candidate;\r\n        uint64 Votes;\r\n    }\r\n\r\n    struct generated {\r\n        address VoterAddress;\r\n        uint ElectionId;\r\n    }\r\n\r\n    mapping (address => string) voters;\r\n    mapping (address => key) keys;\r\n    mapping (address => mapping (uint => bool)) generatedKeys;\r\n    mapping (uint => vote[]) votes; //mapping vote array for every election\r\n\r\n    mapping (address => bool) admins; \r\n    bool adminsAdded = false; \r\n\r\n    election[] public elections;\r\n\r\n\r\n    function getElections() public view \r\n    adminOnly()\r\n    returns(election[] memory electionList) \r\n    {\r\n        electionList = elections;\r\n    }\r\n\r\n\r\n    function getDetails(uint id) public view \r\n    adminOnly()\r\n    returns(electionDetails memory Value) \r\n    {\r\n        for(uint i=0; i < elections.length; i++){\r\n            if (elections[i].ElectionId == id){\r\n                election memory el = elections[i];\r\n                result[] memory results = new result[](el.Candidates.length);\r\n                for(uint j=0; j < el.Candidates.length; j++){\r\n                    results[j].Candidate = el.Candidates[j];\r\n                }\r\n\r\n                vote[] memory electionVotes = votes[el.ElectionId];\r\n                for(uint j=0; j < electionVotes.length; j++){\r\n                    if (electionVotes[j].Latest){\r\n                        results[electionVotes[j].CandidateId].Votes += 1;\r\n                    }\r\n                }\r\n\r\n                return electionDetails(el.ElectionId, el.Title, el.DateFrom, el.DateTo, el.KeysPerVoter, results);\r\n            }\r\n        }\r\n        revert(\"Election not found.\");\r\n    }\r\n\r\n\r\n    function addElection(string memory title, uint64 dateFrom, uint64 dateTo, uint8 keysPerVoter, string[] memory candidateList) public \r\n        onlyUniqueCandidates(candidateList)\r\n        adminOnly()\r\n    {\r\n        uint id = uint(keccak256(abi.encodePacked(block.timestamp, msg.sender)));\r\n\r\n        elections.push(election(id, title, dateFrom, dateTo, keysPerVoter, candidateList));\r\n    }\r\n\r\n\r\n    event UserAddedToElection(key[] newKeys);\r\n\r\n\r\n    function addAddUserToElection(uint electionId, address voterAdress, string memory voter) public payable \r\n    adminOnly()\r\n    returns(key[] memory newKeys)\r\n    {\r\n        require(generatedKeys[voterAdress][electionId] == false, \"Keys for this user have been generated.\");\r\n        for(uint i=0; i < elections.length; i++){\r\n            if (elections[i].ElectionId == electionId){\r\n                require(elections[i].DateFrom > block.timestamp);\r\n\r\n                if (bytes(voters[voterAdress]).length==0){\r\n                    voters[voterAdress] = voter;\r\n                }\r\n                require(equal(voters[voterAdress], voter));\r\n\r\n                uint keysCount = elections[i].KeysPerVoter;\r\n                newKeys = new key[](keysCount);\r\n                for(uint j=0; j < keysCount; j++){\r\n                    address addr = address(uint160(uint(keccak256(abi.encodePacked(block.timestamp + j, blockhash(block.number))))));\r\n                    key memory k = key(addr, electionId, voter, voterAdress, true);\r\n                    keys[addr] = k;\r\n                    newKeys[j] = k;\r\n                }\r\n                break;\r\n            }\r\n        }\r\n        generatedKeys[voterAdress][electionId] = true;\r\n        emit UserAddedToElection(newKeys);\r\n    }\r\n\r\n\r\n    function addVote(string memory voter, address keyAdr, uint64 candidateId ) public \r\n        //onlyDuringElection(keyAdr)\r\n        {\r\n        require(keys[keyAdr].ValidKey, \"Key not valid.\");\r\n        require(equal(voters[msg.sender], voter), \"Sender and voter don't match.\");\r\n\r\n        vote[] storage votesb = votes[keys[keyAdr].ElectionId];\r\n        for(uint i=0; i < votesb.length; i++){\r\n            if (votesb[i].VoterAddress == msg.sender){\r\n                votesb[i].Latest = false;\r\n            }\r\n        }\r\n        votesb.push(vote(keyAdr, candidateId, uint64(block.timestamp), msg.sender, true));\r\n        keys[keyAdr].ValidKey = false;\r\n    }        \r\n\r\n\r\n    function checkVote(string memory voter, address keyAdr) public view\r\n    returns(bool voted) \r\n    {\r\n        require(bytes(voters[msg.sender]).length > 0, \"Voter doesn't exist.\");\r\n        require(equal(voters[msg.sender], voter), \"Sender and voter don't match.\");\r\n        \r\n        voted = false;\r\n        vote[] storage votesb = votes[keys[keyAdr].ElectionId];\r\n        for(uint i=0; i < votesb.length; i++){\r\n            if (votesb[i].VoterAddress == msg.sender && votesb[i].Latest) voted = true;\r\n        }\r\n    }  \r\n\r\n\r\n    function startVote(string memory voter, address keyAdr) public view\r\n    onlyDuringElection(keyAdr)\r\n    returns(election memory el) {\r\n        require(keys[keyAdr].ValidKey, \"Key not valid.\");\r\n        require(equal(voters[msg.sender], voter), \"Sender and voter don't match.\");\r\n        \r\n        key memory k = keys[keyAdr];\r\n\r\n        for(uint i=0; i < elections.length; i++){\r\n            if (elections[i].ElectionId == k.ElectionId){\r\n                el = elections[i];\r\n                break;\r\n            }\r\n        }\r\n    }  \r\n\r\n\r\n    function equal(string memory a, string memory b) pure private returns(bool) {\r\n        return keccak256(abi.encodePacked(a)) == keccak256(abi.encodePacked(b));\r\n    }\r\n\r\n\r\n    function addAdminBatch(address[] memory newAdmins) public \r\n    senderExistsInBatch(newAdmins)\r\n    {\r\n        require(!adminsAdded, \"Admin batch is only avaible once while there is no administrator.\");\r\n        require(newAdmins.length>0, \"List is empty\");\r\n\r\n        for(uint i=0; i < newAdmins.length; i++){\r\n           admins[newAdmins[i]] = true;\r\n        }\r\n        adminsAdded = true;\r\n    } \r\n\r\n\r\n    function addAdmin(address newAdmin) public \r\n    adminOnly()\r\n    {\r\n        require(adminsAdded);\r\n        admins[newAdmin] = true;\r\n    } \r\n\r\n\r\n    modifier onlyUniqueCandidates(string[] memory candidateList) {\r\n        for(uint i=0; i < candidateList.length; i++){\r\n            for(uint j=0; j < candidateList.length; j++){\r\n                if (i != j){\r\n                    if (equal(candidateList[i], candidateList[j])){\r\n                        revert(\"Candidate is not unique\");\r\n                    }\r\n                }\r\n            }\r\n        }\r\n        _;\r\n    }\r\n\r\n\r\n    modifier adminOnly() {\r\n        if (!admins[msg.sender]) revert(\"No permission.\");\r\n        _;\r\n    }\r\n\r\n\r\n    modifier onlyDuringElection(address keyAdr) {\r\n        key memory k = keys[keyAdr];\r\n        election memory el;\r\n        for(uint i=0; i < elections.length; i++){\r\n            if (elections[i].ElectionId == k.ElectionId){\r\n                el = elections[i];\r\n                break;\r\n            }\r\n        }\r\n        if(el.DateFrom > block.timestamp || el.DateTo < block.timestamp) revert(\"Voting only allowed during the election.\");\r\n        _;\r\n    }\r\n\r\n    modifier senderExistsInBatch(address[] memory newAdmins) {\r\n        bool exists = false;\r\n        for(uint i=0; i < newAdmins.length; i++){\r\n            if (msg.sender == newAdmins[i]) exists = true;\r\n        }\r\n        if (!exists) revert(\"Sender has to be one of the admins.\");\r\n        _;\r\n    }\r\n}\r\n",
  "sourcePath": "D:/poli/Pracownia_Problemowa/voting-system/voting-system-api/voting-system-api/contracts/VotingSystem.sol",
  "compiler": {
    "name": "solc",
    "version": "0.5.16+commit.9c3226ce.Emscripten.clang"
  },
  "schemaVersion": "3.3.4",
  "updatedAt": "2021-05-23T10:30:59.113Z",
  "networkType": "ethereum",
  "devdoc": {
    "methods": {}
  },
  "userdoc": {
    "methods": {}
  }
}