{
  "contractName": "VotingSystem",
  "abi": [
    {
      "anonymous": false,
      "inputs": [
        {
          "components": [
            {
              "internalType": "address",
              "name": "KeyValue",
              "type": "address"
            },
            {
              "internalType": "uint256",
              "name": "ElectionId",
              "type": "uint256"
            },
            {
              "internalType": "string",
              "name": "Voter",
              "type": "string"
            },
            {
              "internalType": "address",
              "name": "VoterAddress",
              "type": "address"
            },
            {
              "internalType": "bool",
              "name": "ValidKey",
              "type": "bool"
            }
          ],
          "indexed": false,
          "internalType": "struct VotingSystem.key[]",
          "name": "newKeys",
          "type": "tuple[]"
        }
      ],
      "name": "UserAddedToElection",
      "type": "event"
    },
    {
      "constant": true,
      "inputs": [
        {
          "internalType": "uint256",
          "name": "",
          "type": "uint256"
        }
      ],
      "name": "elections",
      "outputs": [
        {
          "internalType": "uint256",
          "name": "ElectionId",
          "type": "uint256"
        },
        {
          "internalType": "string",
          "name": "Title",
          "type": "string"
        },
        {
          "internalType": "uint64",
          "name": "DateFrom",
          "type": "uint64"
        },
        {
          "internalType": "uint64",
          "name": "DateTo",
          "type": "uint64"
        },
        {
          "internalType": "uint8",
          "name": "KeysPerVoter",
          "type": "uint8"
        }
      ],
      "payable": false,
      "stateMutability": "view",
      "type": "function"
    },
    {
      "constant": true,
      "inputs": [],
      "name": "getElections",
      "outputs": [
        {
          "components": [
            {
              "internalType": "uint256",
              "name": "ElectionId",
              "type": "uint256"
            },
            {
              "internalType": "string",
              "name": "Title",
              "type": "string"
            },
            {
              "internalType": "uint64",
              "name": "DateFrom",
              "type": "uint64"
            },
            {
              "internalType": "uint64",
              "name": "DateTo",
              "type": "uint64"
            },
            {
              "internalType": "uint8",
              "name": "KeysPerVoter",
              "type": "uint8"
            },
            {
              "internalType": "string[]",
              "name": "Candidates",
              "type": "string[]"
            }
          ],
          "internalType": "struct VotingSystem.election[]",
          "name": "electionList",
          "type": "tuple[]"
        }
      ],
      "payable": false,
      "stateMutability": "view",
      "type": "function"
    },
    {
      "constant": true,
      "inputs": [
        {
          "internalType": "uint256",
          "name": "id",
          "type": "uint256"
        }
      ],
      "name": "getDetails",
      "outputs": [
        {
          "components": [
            {
              "internalType": "uint256",
              "name": "ElectionId",
              "type": "uint256"
            },
            {
              "internalType": "string",
              "name": "Title",
              "type": "string"
            },
            {
              "internalType": "uint64",
              "name": "DateFrom",
              "type": "uint64"
            },
            {
              "internalType": "uint64",
              "name": "DateTo",
              "type": "uint64"
            },
            {
              "internalType": "uint8",
              "name": "KeysPerVoter",
              "type": "uint8"
            },
            {
              "components": [
                {
                  "internalType": "string",
                  "name": "Candidate",
                  "type": "string"
                },
                {
                  "internalType": "uint64",
                  "name": "Votes",
                  "type": "uint64"
                }
              ],
              "internalType": "struct VotingSystem.result[]",
              "name": "Results",
              "type": "tuple[]"
            }
          ],
          "internalType": "struct VotingSystem.electionDetails",
          "name": "Value",
          "type": "tuple"
        }
      ],
      "payable": false,
      "stateMutability": "view",
      "type": "function"
    },
    {
      "constant": false,
      "inputs": [
        {
          "internalType": "string",
          "name": "title",
          "type": "string"
        },
        {
          "internalType": "uint64",
          "name": "dateFrom",
          "type": "uint64"
        },
        {
          "internalType": "uint64",
          "name": "dateTo",
          "type": "uint64"
        },
        {
          "internalType": "uint8",
          "name": "keysPerVoter",
          "type": "uint8"
        },
        {
          "internalType": "string[]",
          "name": "candidateList",
          "type": "string[]"
        }
      ],
      "name": "addElection",
      "outputs": [],
      "payable": false,
      "stateMutability": "nonpayable",
      "type": "function"
    },
    {
      "constant": false,
      "inputs": [
        {
          "internalType": "uint256",
          "name": "electionId",
          "type": "uint256"
        },
        {
          "internalType": "address",
          "name": "voterAdress",
          "type": "address"
        },
        {
          "internalType": "string",
          "name": "voter",
          "type": "string"
        }
      ],
      "name": "addAddUserToElection",
      "outputs": [
        {
          "components": [
            {
              "internalType": "address",
              "name": "KeyValue",
              "type": "address"
            },
            {
              "internalType": "uint256",
              "name": "ElectionId",
              "type": "uint256"
            },
            {
              "internalType": "string",
              "name": "Voter",
              "type": "string"
            },
            {
              "internalType": "address",
              "name": "VoterAddress",
              "type": "address"
            },
            {
              "internalType": "bool",
              "name": "ValidKey",
              "type": "bool"
            }
          ],
          "internalType": "struct VotingSystem.key[]",
          "name": "newKeys",
          "type": "tuple[]"
        }
      ],
      "payable": true,
      "stateMutability": "payable",
      "type": "function"
    },
    {
      "constant": false,
      "inputs": [
        {
          "internalType": "string",
          "name": "voter",
          "type": "string"
        },
        {
          "internalType": "address",
          "name": "keyAdr",
          "type": "address"
        },
        {
          "internalType": "uint64",
          "name": "candidateId",
          "type": "uint64"
        }
      ],
      "name": "addVote",
      "outputs": [],
      "payable": false,
      "stateMutability": "nonpayable",
      "type": "function"
    },
    {
      "constant": true,
      "inputs": [
        {
          "internalType": "string",
          "name": "voter",
          "type": "string"
        },
        {
          "internalType": "address",
          "name": "keyAdr",
          "type": "address"
        }
      ],
      "name": "checkVote",
      "outputs": [
        {
          "internalType": "bool",
          "name": "voted",
          "type": "bool"
        }
      ],
      "payable": false,
      "stateMutability": "view",
      "type": "function"
    },
    {
      "constant": true,
      "inputs": [
        {
          "internalType": "string",
          "name": "voter",
          "type": "string"
        },
        {
          "internalType": "address",
          "name": "keyAdr",
          "type": "address"
        }
      ],
      "name": "startVote",
      "outputs": [
        {
          "components": [
            {
              "internalType": "uint256",
              "name": "ElectionId",
              "type": "uint256"
            },
            {
              "internalType": "string",
              "name": "Title",
              "type": "string"
            },
            {
              "internalType": "uint64",
              "name": "DateFrom",
              "type": "uint64"
            },
            {
              "internalType": "uint64",
              "name": "DateTo",
              "type": "uint64"
            },
            {
              "internalType": "uint8",
              "name": "KeysPerVoter",
              "type": "uint8"
            },
            {
              "internalType": "string[]",
              "name": "Candidates",
              "type": "string[]"
            }
          ],
          "internalType": "struct VotingSystem.election",
          "name": "el",
          "type": "tuple"
        }
      ],
      "payable": false,
      "stateMutability": "view",
      "type": "function"
    },
    {
      "constant": true,
      "inputs": [],
      "name": "isAdmin",
      "outputs": [
        {
          "internalType": "bool",
          "name": "",
          "type": "bool"
        }
      ],
      "payable": false,
      "stateMutability": "view",
      "type": "function"
    },
    {
      "constant": false,
      "inputs": [
        {
          "internalType": "address[]",
          "name": "newAdmins",
          "type": "address[]"
        }
      ],
      "name": "addAdminBatch",
      "outputs": [],
      "payable": false,
      "stateMutability": "nonpayable",
      "type": "function"
    },
    {
      "constant": false,
      "inputs": [
        {
          "internalType": "address",
          "name": "newAdmin",
          "type": "address"
        }
      ],
      "name": "addAdmin",
      "outputs": [],
      "payable": false,
      "stateMutability": "nonpayable",
      "type": "function"
    },
    {
      "constant": false,
      "inputs": [
        {
          "internalType": "address",
          "name": "admin",
          "type": "address"
        }
      ],
      "name": "removeAdmin",
      "outputs": [],
      "payable": false,
      "stateMutability": "nonpayable",
      "type": "function"
    }
  ],
  "bytecode": "0x60806040526000600560006101000a81548160ff02191690831515021790555034801561002b57600080fd5b506141f08061003b6000396000f3fe6080604052600436106100a75760003560e01c8063987641cb11610064578063987641cb146101d55780639916cc35146102125780639f3a7f521461023b578063aba4757914610266578063b6db75a01461028f578063b93a89f7146102ba576100a7565b80631785f53c146100ac5780635e6fef01146100d55780636fcf362e14610116578063704802751461013f578063834e90cf146101685780638de34e9514610198575b600080fd5b3480156100b857600080fd5b506100d360048036036100ce9190810190612f3c565b6102f7565b005b3480156100e157600080fd5b506100fc60048036036100f79190810190613108565b61049c565b60405161010d959493929190613dde565b60405180910390f35b34801561012257600080fd5b5061013d60048036036101389190810190613061565b6105ac565b005b34801561014b57600080fd5b5061016660048036036101619190810190612f3c565b61085b565b005b610182600480360361017d9190810190613131565b610991565b60405161018f9190613bdd565b60405180910390f35b3480156101a457600080fd5b506101bf60048036036101ba9190810190612fa6565b610fe8565b6040516101cc9190613dbc565b60405180910390f35b3480156101e157600080fd5b506101fc60048036036101f79190810190612fa6565b6115fa565b6040516102099190613bff565b60405180910390f35b34801561021e57600080fd5b5061023960048036036102349190810190612ffa565b6118dc565b005b34801561024757600080fd5b50610250611db1565b60405161025d9190613bbb565b60405180910390f35b34801561027257600080fd5b5061028d60048036036102889190810190612f65565b6120b2565b005b34801561029b57600080fd5b506102a461229d565b6040516102b19190613bff565b60405180910390f35b3480156102c657600080fd5b506102e160048036036102dc9190810190613108565b6122f1565b6040516102ee9190613d9a565b60405180910390f35b600460003373ffffffffffffffffffffffffffffffffffffffff1673ffffffffffffffffffffffffffffffffffffffff16815260200190815260200160002060009054906101000a900460ff16610383576040517f08c379a000000000000000000000000000000000000000000000000000000000815260040161037a90613c9a565b60405180910390fd5b600560009054906101000a900460ff166103d2576040517f08c379a00000000000000000000000000000000000000000000000000000000081526004016103c990613d1a565b60405180910390fd5b3373ffffffffffffffffffffffffffffffffffffffff168173ffffffffffffffffffffffffffffffffffffffff161415610441576040517f08c379a000000000000000000000000000000000000000000000000000000000815260040161043890613d5a565b60405180910390fd5b6000600460008373ffffffffffffffffffffffffffffffffffffffff1673ffffffffffffffffffffffffffffffffffffffff16815260200190815260200160002060006101000a81548160ff02191690831515021790555050565b600681815481106104a957fe5b9060005260206000209060040201600091509050806000015490806001018054600181600116156101000203166002900480601f01602080910402602001604051908101604052809291908181526020018280546001816001161561010002031660029004801561055b5780601f106105305761010080835404028352916020019161055b565b820191906000526020600020905b81548152906001019060200180831161053e57829003601f168201915b5050505050908060020160009054906101000a900467ffffffffffffffff16908060020160089054906101000a900467ffffffffffffffff16908060020160109054906101000a900460ff16905085565b8060008090505b815181101561065e5760008090505b825181101561065057808214610643576106028383815181106105e157fe5b60200260200101518483815181106105f557fe5b602002602001015161297f565b15610642576040517f08c379a000000000000000000000000000000000000000000000000000000000815260040161063990613d7a565b60405180910390fd5b5b80806001019150506105c2565b5080806001019150506105b3565b50600460003373ffffffffffffffffffffffffffffffffffffffff1673ffffffffffffffffffffffffffffffffffffffff16815260200190815260200160002060009054906101000a900460ff166106eb576040517f08c379a00000000000000000000000000000000000000000000000000000000081526004016106e290613c9a565b60405180910390fd5b60004233604051602001610700929190613b63565b6040516020818303038152906040528051906020012060001c905060066040518060c001604052808381526020018981526020018867ffffffffffffffff1681526020018767ffffffffffffffff1681526020018660ff16815260200185815250908060018154018082558091505090600182039060005260206000209060040201600090919290919091506000820151816000015560208201518160010190805190602001906107b29291906129d8565b5060408201518160020160006101000a81548167ffffffffffffffff021916908367ffffffffffffffff16021790555060608201518160020160086101000a81548167ffffffffffffffff021916908367ffffffffffffffff16021790555060808201518160020160106101000a81548160ff021916908360ff16021790555060a082015181600301908051906020019061084e929190612a58565b5050505050505050505050565b600460003373ffffffffffffffffffffffffffffffffffffffff1673ffffffffffffffffffffffffffffffffffffffff16815260200190815260200160002060009054906101000a900460ff166108e7576040517f08c379a00000000000000000000000000000000000000000000000000000000081526004016108de90613c9a565b60405180910390fd5b600560009054906101000a900460ff16610936576040517f08c379a000000000000000000000000000000000000000000000000000000000815260040161092d90613d1a565b60405180910390fd5b6001600460008373ffffffffffffffffffffffffffffffffffffffff1673ffffffffffffffffffffffffffffffffffffffff16815260200190815260200160002060006101000a81548160ff02191690831515021790555050565b6060600460003373ffffffffffffffffffffffffffffffffffffffff1673ffffffffffffffffffffffffffffffffffffffff16815260200190815260200160002060009054906101000a900460ff16610a1f576040517f08c379a0000000000000000000000000000000000000000000000000000000008152600401610a1690613c9a565b60405180910390fd5b60001515600260008573ffffffffffffffffffffffffffffffffffffffff1673ffffffffffffffffffffffffffffffffffffffff168152602001908152602001600020600086815260200190815260200160002060009054906101000a900460ff16151514610ac3576040517f08c379a0000000000000000000000000000000000000000000000000000000008152600401610aba90613d3a565b60405180910390fd5b60008090505b600680549050811015610f40578460068281548110610ae457fe5b9060005260206000209060040201600001541415610f33574260068281548110610b0a57fe5b906000526020600020906004020160020160009054906101000a900467ffffffffffffffff1667ffffffffffffffff1611610b4457600080fd5b60008060008673ffffffffffffffffffffffffffffffffffffffff1673ffffffffffffffffffffffffffffffffffffffff1681526020019081526020016000208054600181600116156101000203166002900490501415610bf357826000808673ffffffffffffffffffffffffffffffffffffffff1673ffffffffffffffffffffffffffffffffffffffff1681526020019081526020016000209080519060200190610bf1929190612ab8565b505b610cd36000808673ffffffffffffffffffffffffffffffffffffffff1673ffffffffffffffffffffffffffffffffffffffff1681526020019081526020016000208054600181600116156101000203166002900480601f016020809104026020016040519081016040528092919081815260200182805460018160011615610100020316600290048015610cc85780601f10610c9d57610100808354040283529160200191610cc8565b820191906000526020600020905b815481529060010190602001808311610cab57829003601f168201915b50505050508461297f565b610cdc57600080fd5b600060068281548110610ceb57fe5b906000526020600020906004020160020160109054906101000a900460ff1660ff16905080604051908082528060200260200182016040528015610d4957816020015b610d36612b38565b815260200190600190039081610d2e5790505b50925060008090505b81811015610f2c5760008142014340604051602001610d72929190613b8f565b6040516020818303038152906040528051906020012060001c9050610d95612b95565b6040518060a001604052808373ffffffffffffffffffffffffffffffffffffffff1681526020018a81526020018881526020018973ffffffffffffffffffffffffffffffffffffffff16815260200160011515815250905080600160008473ffffffffffffffffffffffffffffffffffffffff1673ffffffffffffffffffffffffffffffffffffffff16815260200190815260200160002060008201518160000160006101000a81548173ffffffffffffffffffffffffffffffffffffffff021916908373ffffffffffffffffffffffffffffffffffffffff160217905550602082015181600101556040820151816002019080519060200190610e9a9291906129d8565b5060608201518160030160006101000a81548173ffffffffffffffffffffffffffffffffffffffff021916908373ffffffffffffffffffffffffffffffffffffffff16021790555060808201518160030160146101000a81548160ff02191690831515021790555090505080868481518110610f1257fe5b602002602001018190525050508080600101915050610d52565b5050610f40565b8080600101915050610ac9565b506001600260008573ffffffffffffffffffffffffffffffffffffffff1673ffffffffffffffffffffffffffffffffffffffff168152602001908152602001600020600086815260200190815260200160002060006101000a81548160ff0219169083151502179055507fb6db8bc678559103f3606a91c7397a96696ac489c86b9726831e695b8484291d81604051610fd99190613bdd565b60405180910390a19392505050565b610ff0612bf2565b600160008373ffffffffffffffffffffffffffffffffffffffff1673ffffffffffffffffffffffffffffffffffffffff16815260200190815260200160002060030160149054906101000a900460ff1661107f576040517f08c379a000000000000000000000000000000000000000000000000000000000815260040161107690613cfa565b60405180910390fd5b61115f6000803373ffffffffffffffffffffffffffffffffffffffff1673ffffffffffffffffffffffffffffffffffffffff1681526020019081526020016000208054600181600116156101000203166002900480601f0160208091040260200160405190810160405280929190818152602001828054600181600116156101000203166002900480156111545780601f1061112957610100808354040283529160200191611154565b820191906000526020600020905b81548152906001019060200180831161113757829003601f168201915b50505050508461297f565b61119e576040517f08c379a000000000000000000000000000000000000000000000000000000000815260040161119590613c5a565b60405180910390fd5b6111a6612b95565b600160008473ffffffffffffffffffffffffffffffffffffffff1673ffffffffffffffffffffffffffffffffffffffff1681526020019081526020016000206040518060a00160405290816000820160009054906101000a900473ffffffffffffffffffffffffffffffffffffffff1673ffffffffffffffffffffffffffffffffffffffff1673ffffffffffffffffffffffffffffffffffffffff16815260200160018201548152602001600282018054600181600116156101000203166002900480601f0160208091040260200160405190810160405280929190818152602001828054600181600116156101000203166002900480156112e95780601f106112be576101008083540402835291602001916112e9565b820191906000526020600020905b8154815290600101906020018083116112cc57829003601f168201915b505050505081526020016003820160009054906101000a900473ffffffffffffffffffffffffffffffffffffffff1673ffffffffffffffffffffffffffffffffffffffff1673ffffffffffffffffffffffffffffffffffffffff1681526020016003820160149054906101000a900460ff161515151581525050905060008090505b6006805490508110156115f25781602001516006828154811061138a57fe5b90600052602060002090600402016000015414156115e557600681815481106113af57fe5b90600052602060002090600402016040518060c001604052908160008201548152602001600182018054600181600116156101000203166002900480601f01602080910402602001604051908101604052809291908181526020018280546001816001161561010002031660029004801561146b5780601f106114405761010080835404028352916020019161146b565b820191906000526020600020905b81548152906001019060200180831161144e57829003601f168201915b505050505081526020016002820160009054906101000a900467ffffffffffffffff1667ffffffffffffffff1667ffffffffffffffff1681526020016002820160089054906101000a900467ffffffffffffffff1667ffffffffffffffff1667ffffffffffffffff1681526020016002820160109054906101000a900460ff1660ff1660ff16815260200160038201805480602002602001604051908101604052809291908181526020016000905b828210156115d6578382906000526020600020018054600181600116156101000203166002900480601f0160208091040260200160405190810160405280929190818152602001828054600181600116156101000203166002900480156115c25780601f10611597576101008083540402835291602001916115c2565b820191906000526020600020905b8154815290600101906020018083116115a557829003601f168201915b50505050508152602001906001019061151a565b505050508152505092506115f2565b808060010191505061136b565b505092915050565b6000806000803373ffffffffffffffffffffffffffffffffffffffff1673ffffffffffffffffffffffffffffffffffffffff16815260200190815260200160002080546001816001161561010002031660029004905011611690576040517f08c379a000000000000000000000000000000000000000000000000000000000815260040161168790613c7a565b60405180910390fd5b6117706000803373ffffffffffffffffffffffffffffffffffffffff1673ffffffffffffffffffffffffffffffffffffffff1681526020019081526020016000208054600181600116156101000203166002900480601f0160208091040260200160405190810160405280929190818152602001828054600181600116156101000203166002900480156117655780601f1061173a57610100808354040283529160200191611765565b820191906000526020600020905b81548152906001019060200180831161174857829003601f168201915b50505050508461297f565b6117af576040517f08c379a00000000000000000000000000000000000000000000000000000000081526004016117a690613c5a565b60405180910390fd5b60009050600060036000600160008673ffffffffffffffffffffffffffffffffffffffff1673ffffffffffffffffffffffffffffffffffffffff168152602001908152602001600020600101548152602001908152602001600020905060008090505b81805490508110156118d4573373ffffffffffffffffffffffffffffffffffffffff1682828154811061184157fe5b906000526020600020906002020160010160089054906101000a900473ffffffffffffffffffffffffffffffffffffffff1673ffffffffffffffffffffffffffffffffffffffff161480156118bd575081818154811061189d57fe5b9060005260206000209060020201600101601c9054906101000a900460ff165b156118c757600192505b8080600101915050611812565b505092915050565b600160008373ffffffffffffffffffffffffffffffffffffffff1673ffffffffffffffffffffffffffffffffffffffff16815260200190815260200160002060030160149054906101000a900460ff1661196b576040517f08c379a000000000000000000000000000000000000000000000000000000000815260040161196290613cfa565b60405180910390fd5b611a4b6000803373ffffffffffffffffffffffffffffffffffffffff1673ffffffffffffffffffffffffffffffffffffffff1681526020019081526020016000208054600181600116156101000203166002900480601f016020809104026020016040519081016040528092919081815260200182805460018160011615610100020316600290048015611a405780601f10611a1557610100808354040283529160200191611a40565b820191906000526020600020905b815481529060010190602001808311611a2357829003601f168201915b50505050508461297f565b611a8a576040517f08c379a0000000000000000000000000000000000000000000000000000000008152600401611a8190613c5a565b60405180910390fd5b600060036000600160008673ffffffffffffffffffffffffffffffffffffffff1673ffffffffffffffffffffffffffffffffffffffff168152602001908152602001600020600101548152602001908152602001600020905060008090505b8180549050811015611baa573373ffffffffffffffffffffffffffffffffffffffff16828281548110611b1857fe5b906000526020600020906002020160010160089054906101000a900473ffffffffffffffffffffffffffffffffffffffff1673ffffffffffffffffffffffffffffffffffffffff161415611b9d576000828281548110611b7457fe5b9060005260206000209060020201600101601c6101000a81548160ff0219169083151502179055505b8080600101915050611ae9565b50806040518060a001604052808573ffffffffffffffffffffffffffffffffffffffff1681526020018467ffffffffffffffff1681526020014267ffffffffffffffff1681526020013373ffffffffffffffffffffffffffffffffffffffff168152602001600115158152509080600181540180825580915050906001820390600052602060002090600202016000909192909190915060008201518160000160006101000a81548173ffffffffffffffffffffffffffffffffffffffff021916908373ffffffffffffffffffffffffffffffffffffffff16021790555060208201518160000160146101000a81548167ffffffffffffffff021916908367ffffffffffffffff16021790555060408201518160010160006101000a81548167ffffffffffffffff021916908367ffffffffffffffff16021790555060608201518160010160086101000a81548173ffffffffffffffffffffffffffffffffffffffff021916908373ffffffffffffffffffffffffffffffffffffffff160217905550608082015181600101601c6101000a81548160ff0219169083151502179055505050506000600160008573ffffffffffffffffffffffffffffffffffffffff1673ffffffffffffffffffffffffffffffffffffffff16815260200190815260200160002060030160146101000a81548160ff02191690831515021790555050505050565b6060600460003373ffffffffffffffffffffffffffffffffffffffff1673ffffffffffffffffffffffffffffffffffffffff16815260200190815260200160002060009054906101000a900460ff16611e3f576040517f08c379a0000000000000000000000000000000000000000000000000000000008152600401611e3690613c9a565b60405180910390fd5b6006805480602002602001604051908101604052809291908181526020016000905b828210156120a957838290600052602060002090600402016040518060c001604052908160008201548152602001600182018054600181600116156101000203166002900480601f016020809104026020016040519081016040528092919081815260200182805460018160011615610100020316600290048015611f275780601f10611efc57610100808354040283529160200191611f27565b820191906000526020600020905b815481529060010190602001808311611f0a57829003601f168201915b505050505081526020016002820160009054906101000a900467ffffffffffffffff1667ffffffffffffffff1667ffffffffffffffff1681526020016002820160089054906101000a900467ffffffffffffffff1667ffffffffffffffff1667ffffffffffffffff1681526020016002820160109054906101000a900460ff1660ff1660ff16815260200160038201805480602002602001604051908101604052809291908181526020016000905b82821015612092578382906000526020600020018054600181600116156101000203166002900480601f01602080910402602001604051908101604052809291908181526020018280546001816001161561010002031660029004801561207e5780601f106120535761010080835404028352916020019161207e565b820191906000526020600020905b81548152906001019060200180831161206157829003601f168201915b505050505081526020019060010190611fd6565b505050508152505081526020019060010190611e61565b50505050905090565b80600080905060008090505b8251811015612120578281815181106120d357fe5b602002602001015173ffffffffffffffffffffffffffffffffffffffff163373ffffffffffffffffffffffffffffffffffffffff16141561211357600191505b80806001019150506120be565b5080612161576040517f08c379a000000000000000000000000000000000000000000000000000000000815260040161215890613c1a565b60405180910390fd5b600560009054906101000a900460ff16156121b1576040517f08c379a00000000000000000000000000000000000000000000000000000000081526004016121a890613cda565b60405180910390fd5b60008351116121f5576040517f08c379a00000000000000000000000000000000000000000000000000000000081526004016121ec90613c3a565b60405180910390fd5b60008090505b835181101561227c5760016004600086848151811061221657fe5b602002602001015173ffffffffffffffffffffffffffffffffffffffff1673ffffffffffffffffffffffffffffffffffffffff16815260200190815260200160002060006101000a81548160ff02191690831515021790555080806001019150506121fb565b506001600560006101000a81548160ff021916908315150217905550505050565b6000600460003373ffffffffffffffffffffffffffffffffffffffff1673ffffffffffffffffffffffffffffffffffffffff16815260200190815260200160002060009054906101000a900460ff16905090565b6122f9612c3f565b600460003373ffffffffffffffffffffffffffffffffffffffff1673ffffffffffffffffffffffffffffffffffffffff16815260200190815260200160002060009054906101000a900460ff16612385576040517f08c379a000000000000000000000000000000000000000000000000000000000815260040161237c90613c9a565b60405180910390fd5b60008090505b60068054905081101561293e5782600682815481106123a657fe5b9060005260206000209060040201600001541415612931576123c6612bf2565b600682815481106123d357fe5b90600052602060002090600402016040518060c001604052908160008201548152602001600182018054600181600116156101000203166002900480601f01602080910402602001604051908101604052809291908181526020018280546001816001161561010002031660029004801561248f5780601f106124645761010080835404028352916020019161248f565b820191906000526020600020905b81548152906001019060200180831161247257829003601f168201915b505050505081526020016002820160009054906101000a900467ffffffffffffffff1667ffffffffffffffff1667ffffffffffffffff1681526020016002820160089054906101000a900467ffffffffffffffff1667ffffffffffffffff1667ffffffffffffffff1681526020016002820160109054906101000a900460ff1660ff1660ff16815260200160038201805480602002602001604051908101604052809291908181526020016000905b828210156125fa578382906000526020600020018054600181600116156101000203166002900480601f0160208091040260200160405190810160405280929190818152602001828054600181600116156101000203166002900480156125e65780601f106125bb576101008083540402835291602001916125e6565b820191906000526020600020905b8154815290600101906020018083116125c957829003601f168201915b50505050508152602001906001019061253e565b5050505081525050905060608160a001515160405190808252806020026020018201604052801561264557816020015b612632612c8c565b81526020019060019003908161262a5790505b50905060008090505b8260a001515181101561269b578260a00151818151811061266b57fe5b602002602001015182828151811061267f57fe5b602002602001015160000181905250808060010191505061264e565b5060606003600084600001518152602001908152602001600020805480602002602001604051908101604052809291908181526020016000905b8282101561283257838290600052602060002090600202016040518060a00160405290816000820160009054906101000a900473ffffffffffffffffffffffffffffffffffffffff1673ffffffffffffffffffffffffffffffffffffffff1673ffffffffffffffffffffffffffffffffffffffff1681526020016000820160149054906101000a900467ffffffffffffffff1667ffffffffffffffff1667ffffffffffffffff1681526020016001820160009054906101000a900467ffffffffffffffff1667ffffffffffffffff1667ffffffffffffffff1681526020016001820160089054906101000a900473ffffffffffffffffffffffffffffffffffffffff1673ffffffffffffffffffffffffffffffffffffffff1673ffffffffffffffffffffffffffffffffffffffff16815260200160018201601c9054906101000a900460ff161515151581525050815260200190600101906126d5565b50505050905060008090505b81518110156128cd5781818151811061285357fe5b602002602001015160800151156128c05760018383838151811061287357fe5b60200260200101516020015167ffffffffffffffff168151811061289357fe5b60200260200101516020018181510191509067ffffffffffffffff16908167ffffffffffffffff16815250505b808060010191505061283e565b506040518060c001604052808460000151815260200184602001518152602001846040015167ffffffffffffffff168152602001846060015167ffffffffffffffff168152602001846080015160ff1681526020018381525094505050505061297a565b808060010191505061238b565b506040517f08c379a000000000000000000000000000000000000000000000000000000000815260040161297190613cba565b60405180910390fd5b919050565b6000816040516020016129929190613b4c565b60405160208183030381529060405280519060200120836040516020016129b99190613b4c565b6040516020818303038152906040528051906020012014905092915050565b828054600181600116156101000203166002900490600052602060002090601f016020900481019282601f10612a1957805160ff1916838001178555612a47565b82800160010185558215612a47579182015b82811115612a46578251825591602001919060010190612a2b565b5b509050612a549190612cb0565b5090565b828054828255906000526020600020908101928215612aa7579160200282015b82811115612aa6578251829080519060200190612a969291906129d8565b5091602001919060010190612a78565b5b509050612ab49190612cd5565b5090565b828054600181600116156101000203166002900490600052602060002090601f016020900481019282601f10612af957805160ff1916838001178555612b27565b82800160010185558215612b27579182015b82811115612b26578251825591602001919060010190612b0b565b5b509050612b349190612cb0565b5090565b6040518060a00160405280600073ffffffffffffffffffffffffffffffffffffffff1681526020016000815260200160608152602001600073ffffffffffffffffffffffffffffffffffffffff1681526020016000151581525090565b6040518060a00160405280600073ffffffffffffffffffffffffffffffffffffffff1681526020016000815260200160608152602001600073ffffffffffffffffffffffffffffffffffffffff1681526020016000151581525090565b6040518060c001604052806000815260200160608152602001600067ffffffffffffffff168152602001600067ffffffffffffffff168152602001600060ff168152602001606081525090565b6040518060c001604052806000815260200160608152602001600067ffffffffffffffff168152602001600067ffffffffffffffff168152602001600060ff168152602001606081525090565b604051806040016040528060608152602001600067ffffffffffffffff1681525090565b612cd291905b80821115612cce576000816000905550600101612cb6565b5090565b90565b612cfe91905b80821115612cfa5760008181612cf19190612d01565b50600101612cdb565b5090565b90565b50805460018160011615610100020316600290046000825580601f10612d275750612d46565b601f016020900490600052602060002090810190612d459190612cb0565b5b50565b600081359050612d5881614151565b92915050565b600082601f830112612d6f57600080fd5b8135612d82612d7d82613e65565b613e38565b91508181835260208401935060208101905083856020840282011115612da757600080fd5b60005b83811015612dd75781612dbd8882612d49565b845260208401935060208301925050600181019050612daa565b5050505092915050565b600082601f830112612df257600080fd5b8135612e05612e0082613e8d565b613e38565b9150818183526020840193506020810190508360005b83811015612e4b5781358601612e318882612e55565b845260208401935060208301925050600181019050612e1b565b5050505092915050565b600082601f830112612e6657600080fd5b8135612e79612e7482613eb5565b613e38565b91508082526020830160208301858383011115612e9557600080fd5b612ea08382846140b9565b50505092915050565b600082601f830112612eba57600080fd5b8135612ecd612ec882613ee1565b613e38565b91508082526020830160208301858383011115612ee957600080fd5b612ef48382846140b9565b50505092915050565b600081359050612f0c81614168565b92915050565b600081359050612f218161417f565b92915050565b600081359050612f3681614196565b92915050565b600060208284031215612f4e57600080fd5b6000612f5c84828501612d49565b91505092915050565b600060208284031215612f7757600080fd5b600082013567ffffffffffffffff811115612f9157600080fd5b612f9d84828501612d5e565b91505092915050565b60008060408385031215612fb957600080fd5b600083013567ffffffffffffffff811115612fd357600080fd5b612fdf85828601612ea9565b9250506020612ff085828601612d49565b9150509250929050565b60008060006060848603121561300f57600080fd5b600084013567ffffffffffffffff81111561302957600080fd5b61303586828701612ea9565b935050602061304686828701612d49565b925050604061305786828701612f12565b9150509250925092565b600080600080600060a0868803121561307957600080fd5b600086013567ffffffffffffffff81111561309357600080fd5b61309f88828901612ea9565b95505060206130b088828901612f12565b94505060406130c188828901612f12565b93505060606130d288828901612f27565b925050608086013567ffffffffffffffff8111156130ef57600080fd5b6130fb88828901612de1565b9150509295509295909350565b60006020828403121561311a57600080fd5b600061312884828501612efd565b91505092915050565b60008060006060848603121561314657600080fd5b600061315486828701612efd565b935050602061316586828701612d49565b925050604084013567ffffffffffffffff81111561318257600080fd5b61318e86828701612ea9565b9150509250925092565b60006131a48383613448565b905092915050565b60006131b88383613998565b905092915050565b60006131cc8383613a28565b905092915050565b60006131e08383613a9e565b905092915050565b6131f96131f482614046565b6140fb565b82525050565b61320881614034565b82525050565b600061321982613f4d565b6132238185613fc3565b93508360208202850161323585613f0d565b8060005b8581101561327157848403895281516132528582613198565b945061325d83613f8f565b925060208a01995050600181019050613239565b50829750879550505050505092915050565b600061328e82613f58565b6132988185613fd4565b9350836020820285016132aa85613f1d565b8060005b858110156132e657848403895281516132c785826131ac565b94506132d283613f9c565b925060208a019950506001810190506132ae565b50829750879550505050505092915050565b600061330382613f63565b61330d8185613fe5565b93508360208202850161331f85613f2d565b8060005b8581101561335b578484038952815161333c85826131c0565b945061334783613fa9565b925060208a01995050600181019050613323565b50829750879550505050505092915050565b600061337882613f6e565b6133828185613ff6565b93508360208202850161339485613f3d565b8060005b858110156133d057848403895281516133b185826131d4565b94506133bc83613fb6565b925060208a01995050600181019050613398565b50829750879550505050505092915050565b6133eb81614058565b82525050565b6133fa81614058565b82525050565b61341161340c82614064565b61410d565b82525050565b600061342282613f84565b61342c8185614029565b935061343c8185602086016140c8565b80840191505092915050565b600061345382613f79565b61345d8185614007565b935061346d8185602086016140c8565b61347681614133565b840191505092915050565b600061348c82613f79565b6134968185614018565b93506134a68185602086016140c8565b6134af81614133565b840191505092915050565b60006134c7602383614018565b91507f53656e6465722068617320746f206265206f6e65206f66207468652061646d6960008301527f6e732e00000000000000000000000000000000000000000000000000000000006020830152604082019050919050565b600061352d600d83614018565b91507f4c69737420697320656d707479000000000000000000000000000000000000006000830152602082019050919050565b600061356d601d83614018565b91507f53656e64657220616e6420766f74657220646f6e2774206d617463682e0000006000830152602082019050919050565b60006135ad601483614018565b91507f566f74657220646f65736e27742065786973742e0000000000000000000000006000830152602082019050919050565b60006135ed600e83614018565b91507f4e6f207065726d697373696f6e2e0000000000000000000000000000000000006000830152602082019050919050565b600061362d601383614018565b91507f456c656374696f6e206e6f7420666f756e642e000000000000000000000000006000830152602082019050919050565b600061366d604183614018565b91507f41646d696e206261746368206973206f6e6c792061766169626c65206f6e636560008301527f207768696c65207468657265206973206e6f2061646d696e6973747261746f7260208301527f2e000000000000000000000000000000000000000000000000000000000000006040830152606082019050919050565b60006136f9600e83614018565b91507f4b6579206e6f742076616c69642e0000000000000000000000000000000000006000830152602082019050919050565b6000613739601583614018565b91507f4e6f2061646d696e2062617463682061646465642e00000000000000000000006000830152602082019050919050565b6000613779602783614018565b91507f4b65797320666f72207468697320757365722068617665206265656e2067656e60008301527f6572617465642e000000000000000000000000000000000000000000000000006020830152604082019050919050565b60006137df602483614018565b91507f41646d696e2063616e27742074616b6520686973206f776e2070726976696c6560008301527f6765732e000000000000000000000000000000000000000000000000000000006020830152604082019050919050565b6000613845601783614018565b91507f43616e646964617465206973206e6f7420756e697175650000000000000000006000830152602082019050919050565b600060c0830160008301516138906000860182613adb565b50602083015184820360208601526138a88282613448565b91505060408301516138bd6040860182613b10565b5060608301516138d06060860182613b10565b5060808301516138e36080860182613b2e565b5060a083015184820360a08601526138fb828261336d565b9150508091505092915050565b600060c0830160008301516139206000860182613adb565b50602083015184820360208601526139388282613448565b915050604083015161394d6040860182613b10565b5060608301516139606060860182613b10565b5060808301516139736080860182613b2e565b5060a083015184820360a086015261398b828261320e565b9150508091505092915050565b600060c0830160008301516139b06000860182613adb565b50602083015184820360208601526139c88282613448565b91505060408301516139dd6040860182613b10565b5060608301516139f06060860182613b10565b506080830151613a036080860182613b2e565b5060a083015184820360a0860152613a1b828261320e565b9150508091505092915050565b600060a083016000830151613a4060008601826131ff565b506020830151613a536020860182613adb565b5060408301518482036040860152613a6b8282613448565b9150506060830151613a8060608601826131ff565b506080830151613a9360808601826133e2565b508091505092915050565b60006040830160008301518482036000860152613abb8282613448565b9150506020830151613ad06020860182613b10565b508091505092915050565b613ae48161408e565b82525050565b613af38161408e565b82525050565b613b0a613b058261408e565b614129565b82525050565b613b1981614098565b82525050565b613b2881614098565b82525050565b613b37816140ac565b82525050565b613b46816140ac565b82525050565b6000613b588284613417565b915081905092915050565b6000613b6f8285613af9565b602082019150613b7f82846131e8565b6014820191508190509392505050565b6000613b9b8285613af9565b602082019150613bab8284613400565b6020820191508190509392505050565b60006020820190508181036000830152613bd58184613283565b905092915050565b60006020820190508181036000830152613bf781846132f8565b905092915050565b6000602082019050613c1460008301846133f1565b92915050565b60006020820190508181036000830152613c33816134ba565b9050919050565b60006020820190508181036000830152613c5381613520565b9050919050565b60006020820190508181036000830152613c7381613560565b9050919050565b60006020820190508181036000830152613c93816135a0565b9050919050565b60006020820190508181036000830152613cb3816135e0565b9050919050565b60006020820190508181036000830152613cd381613620565b9050919050565b60006020820190508181036000830152613cf381613660565b9050919050565b60006020820190508181036000830152613d13816136ec565b9050919050565b60006020820190508181036000830152613d338161372c565b9050919050565b60006020820190508181036000830152613d538161376c565b9050919050565b60006020820190508181036000830152613d73816137d2565b9050919050565b60006020820190508181036000830152613d9381613838565b9050919050565b60006020820190508181036000830152613db48184613878565b905092915050565b60006020820190508181036000830152613dd68184613908565b905092915050565b600060a082019050613df36000830188613aea565b8181036020830152613e058187613481565b9050613e146040830186613b1f565b613e216060830185613b1f565b613e2e6080830184613b3d565b9695505050505050565b6000604051905081810181811067ffffffffffffffff82111715613e5b57600080fd5b8060405250919050565b600067ffffffffffffffff821115613e7c57600080fd5b602082029050602081019050919050565b600067ffffffffffffffff821115613ea457600080fd5b602082029050602081019050919050565b600067ffffffffffffffff821115613ecc57600080fd5b601f19601f8301169050602081019050919050565b600067ffffffffffffffff821115613ef857600080fd5b601f19601f8301169050602081019050919050565b6000819050602082019050919050565b6000819050602082019050919050565b6000819050602082019050919050565b6000819050602082019050919050565b600081519050919050565b600081519050919050565b600081519050919050565b600081519050919050565b600081519050919050565b600081519050919050565b6000602082019050919050565b6000602082019050919050565b6000602082019050919050565b6000602082019050919050565b600082825260208201905092915050565b600082825260208201905092915050565b600082825260208201905092915050565b600082825260208201905092915050565b600082825260208201905092915050565b600082825260208201905092915050565b600081905092915050565b600061403f8261406e565b9050919050565b60006140518261406e565b9050919050565b60008115159050919050565b6000819050919050565b600073ffffffffffffffffffffffffffffffffffffffff82169050919050565b6000819050919050565b600067ffffffffffffffff82169050919050565b600060ff82169050919050565b82818337600083830152505050565b60005b838110156140e65780820151818401526020810190506140cb565b838111156140f5576000848401525b50505050565b600061410682614117565b9050919050565b6000819050919050565b600061412282614144565b9050919050565b6000819050919050565b6000601f19601f8301169050919050565b60008160601b9050919050565b61415a81614034565b811461416557600080fd5b50565b6141718161408e565b811461417c57600080fd5b50565b61418881614098565b811461419357600080fd5b50565b61419f816140ac565b81146141aa57600080fd5b5056fea365627a7a72315820457afda200d6d4ae5a502885bf9caec5cc5521be7629fbca31ff33b029a038616c6578706572696d656e74616cf564736f6c63430005100040",
  "source": "// SPDX-License-Identifier: MIT\r\npragma solidity >=0.4.22 <0.9.0;\r\npragma experimental ABIEncoderV2;\r\n\r\ncontract VotingSystem {\r\n    \r\n    struct election {\r\n        uint ElectionId;\r\n        string Title;\r\n        uint64 DateFrom;\r\n        uint64 DateTo;\r\n        uint8 KeysPerVoter;\r\n        string[] Candidates;\r\n    }\r\n\r\n    struct electionDetails {\r\n        uint ElectionId;\r\n        string Title;\r\n        uint64 DateFrom;\r\n        uint64 DateTo;\r\n        uint8 KeysPerVoter;\r\n        result[] Results;\r\n    }\r\n\r\n    struct key {\r\n        address KeyValue;\r\n        uint ElectionId;\r\n        string Voter;\r\n        address VoterAddress;\r\n        bool ValidKey;\r\n    }\r\n\r\n    struct vote {\r\n        address KeyValue;\r\n        uint64 CandidateId;\r\n        uint64 VotedDate;\r\n        address VoterAddress;\r\n        bool Latest;\r\n    }\r\n\r\n    struct result {\r\n        string Candidate;\r\n        uint64 Votes;\r\n    }\r\n\r\n    struct generated {\r\n        address VoterAddress;\r\n        uint ElectionId;\r\n    }\r\n\r\n    mapping (address => string) voters;\r\n    mapping (address => key) keys;\r\n    mapping (address => mapping (uint => bool)) generatedKeys;\r\n    mapping (uint => vote[]) votes; //mapping vote array for every election\r\n\r\n    mapping (address => bool) admins; \r\n    bool adminsAdded = false; \r\n\r\n    election[] public elections;\r\n\r\n\r\n    function getElections() public view \r\n    adminOnly()\r\n    returns(election[] memory electionList) \r\n    {\r\n        electionList = elections;\r\n    }\r\n\r\n\r\n    function getDetails(uint id) public view \r\n    adminOnly()\r\n    //onlyAfterElection(id)\r\n    returns(electionDetails memory Value) \r\n    {\r\n        for(uint i=0; i < elections.length; i++){\r\n            if (elections[i].ElectionId == id){\r\n                election memory el = elections[i];\r\n                result[] memory results = new result[](el.Candidates.length);\r\n                for(uint j=0; j < el.Candidates.length; j++){\r\n                    results[j].Candidate = el.Candidates[j];\r\n                }\r\n\r\n                vote[] memory electionVotes = votes[el.ElectionId];\r\n                for(uint j=0; j < electionVotes.length; j++){\r\n                    if (electionVotes[j].Latest){\r\n                        results[electionVotes[j].CandidateId].Votes += 1;\r\n                    }\r\n                }\r\n\r\n                return electionDetails(el.ElectionId, el.Title, el.DateFrom, el.DateTo, el.KeysPerVoter, results);\r\n            }\r\n        }\r\n        revert(\"Election not found.\");\r\n    }\r\n\r\n\r\n    function addElection(string memory title, uint64 dateFrom, uint64 dateTo, uint8 keysPerVoter, string[] memory candidateList) public \r\n        onlyUniqueCandidates(candidateList)\r\n        adminOnly()\r\n    {\r\n        uint id = uint(keccak256(abi.encodePacked(block.timestamp, msg.sender)));\r\n\r\n        elections.push(election(id, title, dateFrom, dateTo, keysPerVoter, candidateList));\r\n    }\r\n\r\n\r\n    event UserAddedToElection(key[] newKeys);\r\n\r\n\r\n    function addAddUserToElection(uint electionId, address voterAdress, string memory voter) public payable \r\n    adminOnly()\r\n    returns(key[] memory newKeys)\r\n    {\r\n        require(generatedKeys[voterAdress][electionId] == false, \"Keys for this user have been generated.\");\r\n        for(uint i=0; i < elections.length; i++){\r\n            if (elections[i].ElectionId == electionId){\r\n                require(elections[i].DateFrom > block.timestamp);\r\n\r\n                if (bytes(voters[voterAdress]).length==0){\r\n                    voters[voterAdress] = voter;\r\n                }\r\n                require(equal(voters[voterAdress], voter));\r\n\r\n                uint keysCount = elections[i].KeysPerVoter;\r\n                newKeys = new key[](keysCount);\r\n                for(uint j=0; j < keysCount; j++){\r\n                    address addr = address(uint160(uint(keccak256(abi.encodePacked(block.timestamp + j, blockhash(block.number))))));\r\n                    key memory k = key(addr, electionId, voter, voterAdress, true);\r\n                    keys[addr] = k;\r\n                    newKeys[j] = k;\r\n                }\r\n                break;\r\n            }\r\n        }\r\n        generatedKeys[voterAdress][electionId] = true;\r\n        emit UserAddedToElection(newKeys);\r\n    }\r\n\r\n\r\n    function addVote(string memory voter, address keyAdr, uint64 candidateId ) public \r\n        //onlyDuringElection(keyAdr)\r\n        {\r\n        require(keys[keyAdr].ValidKey, \"Key not valid.\");\r\n        require(equal(voters[msg.sender], voter), \"Sender and voter don't match.\");\r\n\r\n        vote[] storage votesb = votes[keys[keyAdr].ElectionId];\r\n        for(uint i=0; i < votesb.length; i++){\r\n            if (votesb[i].VoterAddress == msg.sender){\r\n                votesb[i].Latest = false;\r\n            }\r\n        }\r\n        votesb.push(vote(keyAdr, candidateId, uint64(block.timestamp), msg.sender, true));\r\n        keys[keyAdr].ValidKey = false;\r\n    }        \r\n\r\n\r\n    function checkVote(string memory voter, address keyAdr) public view\r\n    returns(bool voted) \r\n    {\r\n        require(bytes(voters[msg.sender]).length > 0, \"Voter doesn't exist.\");\r\n        require(equal(voters[msg.sender], voter), \"Sender and voter don't match.\");\r\n        \r\n        voted = false;\r\n        vote[] storage votesb = votes[keys[keyAdr].ElectionId];\r\n        for(uint i=0; i < votesb.length; i++){\r\n            if (votesb[i].VoterAddress == msg.sender && votesb[i].Latest) voted = true;\r\n        }\r\n    }  \r\n\r\n\r\n    function startVote(string memory voter, address keyAdr) public view\r\n    //onlyDuringElection(keyAdr)\r\n    returns(election memory el) {\r\n        require(keys[keyAdr].ValidKey, \"Key not valid.\");\r\n        require(equal(voters[msg.sender], voter), \"Sender and voter don't match.\");\r\n        \r\n        key memory k = keys[keyAdr];\r\n\r\n        for(uint i=0; i < elections.length; i++){\r\n            if (elections[i].ElectionId == k.ElectionId){\r\n                el = elections[i];\r\n                break;\r\n            }\r\n        }\r\n    }  \r\n\r\n\r\n    function equal(string memory a, string memory b) pure private returns(bool) {\r\n        return keccak256(abi.encodePacked(a)) == keccak256(abi.encodePacked(b));\r\n    }\r\n\r\n    function isAdmin() public view returns(bool) {\r\n        return admins[msg.sender];\r\n    }\r\n\r\n    function addAdminBatch(address[] memory newAdmins) public \r\n    senderExistsInBatch(newAdmins)\r\n    {\r\n        require(!adminsAdded, \"Admin batch is only avaible once while there is no administrator.\");\r\n        require(newAdmins.length>0, \"List is empty\");\r\n\r\n        for(uint i=0; i < newAdmins.length; i++){\r\n           admins[newAdmins[i]] = true;\r\n        }\r\n        adminsAdded = true;\r\n    } \r\n\r\n\r\n    function addAdmin(address newAdmin) public \r\n    adminOnly()\r\n    {\r\n        require(adminsAdded, \"No admin batch added.\");\r\n        admins[newAdmin] = true;\r\n    } \r\n\r\n    function removeAdmin(address admin) public \r\n    adminOnly()\r\n    {\r\n        require(adminsAdded, \"No admin batch added.\");\r\n        require(admin != msg.sender, \"Admin can't take his own privileges.\");\r\n        admins[admin] = false;\r\n    } \r\n\r\n    modifier onlyUniqueCandidates(string[] memory candidateList) {\r\n        for(uint i=0; i < candidateList.length; i++){\r\n            for(uint j=0; j < candidateList.length; j++){\r\n                if (i != j){\r\n                    if (equal(candidateList[i], candidateList[j])){\r\n                        revert(\"Candidate is not unique\");\r\n                    }\r\n                }\r\n            }\r\n        }\r\n        _;\r\n    }\r\n\r\n\r\n    modifier adminOnly() {\r\n        if (!admins[msg.sender]) revert(\"No permission.\");\r\n        _;\r\n    }\r\n\r\n\r\n    modifier onlyDuringElection(address keyAdr) {\r\n        key memory k = keys[keyAdr];\r\n        election memory el;\r\n        for(uint i=0; i < elections.length; i++){\r\n            if (elections[i].ElectionId == k.ElectionId){\r\n                el = elections[i];\r\n                break;\r\n            }\r\n        }\r\n        if(el.DateFrom > block.timestamp || el.DateTo < block.timestamp) revert(\"Voting only allowed during the election.\");\r\n        _;\r\n    }\r\n\r\n    modifier onlyAfterElection(uint id) {\r\n        election memory el;\r\n        for(uint i=0; i < elections.length; i++){\r\n            if (elections[i].ElectionId == id){\r\n                el = elections[i];\r\n                break;\r\n            }\r\n        }\r\n        if(el.DateTo > block.timestamp) revert(\"Checking the results is only allowed after the eleciton.\");\r\n        _;\r\n    }\r\n\r\n    modifier senderExistsInBatch(address[] memory newAdmins) {\r\n        bool exists = false;\r\n        for(uint i=0; i < newAdmins.length; i++){\r\n            if (msg.sender == newAdmins[i]) exists = true;\r\n        }\r\n        if (!exists) revert(\"Sender has to be one of the admins.\");\r\n        _;\r\n    }\r\n}\r\n",
  "sourcePath": "D:/poli/Pracownia_Problemowa/repo/voting_system/voting-system-api/voting-system-api/contracts/VotingSystem.sol",
  "compiler": {
    "name": "solc",
    "version": "0.5.16+commit.9c3226ce.Emscripten.clang"
  },
  "schemaVersion": "3.3.4",
  "updatedAt": "2021-06-06T14:07:55.372Z",
  "networkType": "ethereum",
  "devdoc": {
    "methods": {}
  },
  "userdoc": {
    "methods": {}
  }
}